:100000000C94A5010C94C2010C94C2010C94CD1760
:100010000C94C2010C94C2010C94C2010C94C20154
:100020000C94C2010C94C2010C94701E0C94441FD9
:100030000C94AC190C94C2010C94C2010C94C20132
:100040000C94C2010C94C2010C94C2010C94C20124
:100050000C94C2010C944F1A0C94C2010C94C2016E
:100060000C94C2010C94C2010C94C2010C94C20104
:100070000C94C2010C94C2010C94C2010C94C201F4
:100080000C94C2010C94C2010C94C2010C94C201E4
:100090000C94C2010C94C2010C94C2010C94C201D4
:1000A0000C94C2010C94C2010C94C20129001E00E0
:1000B0001F002000210022002B0014001A0008005D
:1000C00015001700E70004001600070009000A00E9
:1000D000E1001D001B000600190005000000E20001
:1000E000E000280021522F003500270026002500BF
:1000F000240023002D00130012000C0018001C0027
:10010000340033000F000E000D000B00E500380036
:10011000370036001000110000004C002A002C00AF
:100120002252300001000100010001000100010025
:100130003A003B003C003D003E003F0035001E02FF
:100140001F02200221022202010001000100010021
:100150000100010000000100010001000100010098
:100160000100010001000100010001004500440000
:1001700043004200410040003502270226022502CA
:1001800024022302310230022F022E022D0200002F
:1001900000000100010023520100010001000100E4
:1001A000010001000100010035001E001F002000B9
:1001B000210022003A003B003C003D003E003F0091
:1001C000400041004200430044004500000001009F
:1001D00001002352010001000100010001000100A3
:1001E0000100010001002700260025002400230053
:1001F0004D004F005200510050004A0031003000C5
:100200002F002E002D002E02000001000100010031
:1002100001000100000000000000000000000000DC
:1002200000000000000000000000000000000000CE
:1002300000000000000000000000000000000000BE
:1002400000000000000001000100010001000000AA
:10025000000000000000000000000000000000009E
:10026000000000000000000000000000000000008E
:10027000000000000000000000000000000000007E
:1002800000000100010001000100000000AE00AF0D
:1002900000DA0281FFD9F1DB20A4A62EAF00A0C0B6
:1002A00000A1C800AED580A81FD300408D14200047
:1002B0000E034C0069006C00790035003800000026
:1002C00010036C0069006C00690075006D0073001C
:1002D00000000403090409022200010100A0FA0938
:1002E0000400000103010100092111010001224065
:1002F0000007058103080001120100020000000848
:10030000D8042DEB00010102000105010906A1013D
:10031000050719E029E715002501950875018102F7
:100320009501750881010507190029FF150026FFB1
:1003300000950675088100050819012905950575C0
:10034000019102950175039101C011241FBECFEFE9
:10035000DAE0DEBFCDBF11E0A0E0B1E0EEECF3E407
:1003600002C005900D92A034B107D9F724E0A0E4B3
:10037000B1E001C01D92AF35B207E1F70E946712EC
:100380000C94A6210C9400008430B8F46A30A8F4D0
:10039000463098F450E096E0699F400D511D1124BD
:1003A000FA019CE3899FE00DF11D1124EE0FFF1F60
:1003B000E455FF4F85919491089580E090E0089571
:1003C0000E94C401089581E0089581E008950E948B
:1003D000E501089508950E94EA010895A5E0B0E0BE
:1003E000E4EFF1E00C94262149835A8330914701D0
:1003F00089819A81311119C0662399F0222389F0ED
:100400000E941907182F682F89819A810E94F5068A
:1004100069817A81812F0E94610D2596E3E00C9419
:1004200042210E940707182FF3CF0E941907698104
:100430007A81F1CFFC01262F408151816281738145
:1004400084810E94EE01089581E00895CF93DF93A7
:10045000EC0160E00E941A02BE010E94EB01DF91F4
:10046000CF9108950E94B90E08950E94BD0E08957F
:1004700008950E94C4050E9438022FEF84E39CE097
:10048000215080409040E1F700C0000008950E9494
:1004900039020E94731A08950E9439020E94841A38
:1004A00008950F931F93CF93DF938C0161E00E9417
:1004B0001A02EC01B8010E94E701811106C080E038
:1004C000DF91CF911F910F910895B801CE010E9445
:1004D000FD158823A1F3B801CE010E94931488234F
:1004E00071F3B801CE010E946F15882341F3F80122
:1004F0008281882361F0C330FCE7DF07E9F058F41C
:10050000C115ECE7DE07A9F0C130DC47B9F0C8013E
:100510000E94E301D5CFCB358CE7D807A9F0CC35C5
:10052000ECE7DE0771F0CA35DC4789F70E941B0B48
:10053000EECF0E944702C3CF0E94230B0E944C02C1
:10054000BECF0E94110BE3CF0E941F0BE0CF0E9491
:1005500089190E94D3020E943B1408950E94D70279
:100560000E948E19089508950E94B302089581E0B3
:1005700008950895CF93DF93D82F0E94B702C82F14
:10058000882319F08D2F0E94B9028C2FDF91CF9113
:1005900008950895CF93C82F0E94B4028C2F0E9413
:1005A000BA02CF91089580E00E94CA0208950E9485
:1005B000F3180E94CA020895CF930E94F318C82F1F
:1005C000809142018C1779F0C09342010E94181A61
:1005D00060934301709344018093450190934601D9
:1005E0008C2F0E94CA02CF910895ABE0B0E0EBEFF0
:1005F000F2E00C9427214F83588769877A878B878D
:1006000061110E945C0A1E821D8285E0FE01379600
:10061000DE01119601900D928A95E1F78C819D8102
:10062000892B61F449815A816B817C818D819E8106
:100630000E9485092B96E2E00C94432189819A81DE
:1006400089238F3F79F3CE0101960E942402811104
:10065000E9CFF0CFFC01808191810E944B07089582
:10066000CF93C82F8823B9F08CEF8C0F813AA8F470
:100670006C2F80910001909101010E942419882320
:1006800029F08C2F0E941C0A0E947D0A8C2F0E9448
:10069000140A0E947D0ACF91089580E28C0F883061
:1006A000D0F7C77081E001C0880FCA95EAF70E94B1
:1006B0003F0AEFCF882341F09CEF980F913A28F43E
:1006C0000E941C0A0E947D0A089590E2980F9830BB
:1006D000D8F7877091E001C0990F8A95EAF7892FC2
:1006E0000E94450AEFCF1F93CF93DF93182FEB01A2
:1006F0000E943003209739F4812F0E945A03DF9122
:10070000CF911F9108958FE99FE00197F1F700C005
:1007100000002197EFCF70E060E0893311F460E5CD
:1007200070E00E9473030895882321F00E943F0A1D
:100730000E947D0A0895882321F00E94450A0E94A4
:100740007D0A0895B0E0A0E0E8EAF3E00C942021EF
:100750006C01D62FC72FFC011281F580F2949FE027
:10076000F9220E94350AE82E8823B9F0E12E1123E0
:10077000A1F08C2F807F803421F080E28D0F8830B3
:10078000D0F080912F0282FF16C082E00E94E00A22
:100790000E94350A91E0E82EE926BC2EB2948FE043
:1007A000B822FBE0FB1508F468C0EB2DF0E0E8553B
:1007B000FE4D0C941121E12CF0CF0C2F0F70C07F57
:1007C00011F00295007F112399F0002359F080E287
:1007D0008D0F883010F0D11107C0802F0E943F0A82
:1007E0000E947D0A8D2F41C0802F0E944F0AF8CFB2
:1007F0008D2F0E945A03002309F43FC080E28D0F21
:10080000883010F0D11104C0802F0E94450A03C027
:10081000802F0E94550A0E947D0A2FC00C2F0F7056
:10082000C07FC03211F00295007FDD2381F0D1300E
:1008300009F468C0112309F472C0FF2009F468C0EC
:10084000F601858180FFCECF8F70858361C0809156
:100850002F0282FD33C0112359F0002329F0802F8D
:100860000E943F0A0E947D0A80E00E94300305C07A
:1008700080E00E945A030111C7CFEB2DE850FF0B17
:10088000349720F40E94F3180E94CA02EE2089F0E7
:100890000E94310A80FD0DC0F60112820E942B0ACF
:1008A0000E945306C6010E9490050E942B0A0E94D6
:1008B0006306CDB7DEB7E9E00C943C21112389F043
:1008C000F11006C00E945F0A802B0E949403D5CFCE
:1008D00021E0F212F7CF0E945F0A802B0E94660A85
:1008E000CCCFF11006C00E94730A802F0E949B0398
:1008F000C4CF31E0F31609F2802F0E949B030E94BF
:10090000730ABBCF112331F085E08F1508F4B5CF02
:10091000802FDBCF94E09F1508F4AFCFE6CFFF2008
:1009200021F3D93349F4FFEF27EE33E0F1502040B3
:100930003040E1F700C000008D2F0E945A039DCF88
:100940008C2F8370A1F5111198CF4D2F42954695AC
:100950004770440F440F2D2F2F7030E0042E02C03B
:10096000220F331F0A94E2F790E080E0D4FF09C021
:100970008FE090E002C0880F991F4A95E2F78095BA
:100980009095C695C695C370822B932BC23049F0C3
:1009900058F4C13019F00E9423066FCF0E941A0646
:1009A0006CCF0E942C0669CF0E94170666CF8695F1
:1009B000112311F08C2F8170882309F45ECF4D2F05
:1009C000429546954770440F440F2D2F2F7030E00D
:1009D000042E02C0220F331F0A94E2F790E080E059
:1009E000D4FF09C08FE090E002C0880F991F4A959C
:1009F000E2F780959095C695C695C370822B932B90
:100A0000C23049F058F4C13019F00E948E0635CF3B
:100A10000E94850632CF0E9497062FCF0E943B0688
:100A20002CCFCF70112329F08C2F0E9453068D2FCD
:100A30004CCF8D2F0E949B038C2F0E9463061DCFED
:100A4000D23F51F160F4D03FB9F0D13F81F0112392
:100A500009F449C0F110C6CE8C2F8F7121C0D33F4D
:100A600011F1D43FA1F780912F0282FD26C08C2F77
:100A70008F71112311F314C0112349F084E08F15F5
:100A800008F4FBCE8C2F8F710E947506F6CE95E090
:100A90009F1508F4F2CEF6CF8C2F8F711111CDCFA8
:100AA0000E945306EACE112329F08C2F8F710E94E9
:100AB0004706E3CE0E944206E0CE112349F0CF71F3
:100AC0008C2F0E94530663E08C2F0E94C20AD5CE61
:100AD00081E00E94E00AE1E0EF1508F0CECE82E06E
:100AE0000E94E00ACACEF1101CCF8C2F8F71A5CFC7
:100AF0000F931F93CF93DF93EC01688179818A81F3
:100B00000E9456078C010E94A0060E941606B8019A
:100B1000CE010E94A203DF91CF911F910F91089502
:100B2000CF93DF93EC018B819C81892B29F0888105
:100B3000998189238F3F51F4DF91CF910895CE01A0
:100B40000E947805CE010E942602F6CFCE010E94B7
:100B500051028111F4CF0E94350A882369F38A81FA
:100B6000882351F380912F0282FFE6CF82E00E941A
:100B7000E00AE2CF0E945C0A0E947D0A08950E946A
:100B8000240A0E94BA0508950E944C0A0E94BF05DB
:100B9000089592959F70963091F058F4925F9F70EF
:100BA000923058F4803F19F030F4883E30F481E000
:100BB00008959A5FF4CF843FD1F380E00895883E92
:100BC000B0F3813FD1F7F3CFFC0183819481892B6E
:100BD00029F08081918189238F3F11F480E008956D
:100BE000808191810E944B070E94C9050895A5E06C
:100BF000B0E0EDEFF5E00C9427212596E2E00C94AF
:100C00004321A6E0B0E0E7E0F6E00C942721269629
:100C1000E2E00C94432108950E940B0608950E947F
:100C20000C0690936B0180936A01089508950E94C9
:100C30000F06089520916A0130916B01822B932B4E
:100C40000E940F06089520916A0130916B01822362
:100C500093230E940F06089520916A0130916B0141
:100C6000822793270E940F0608950E940B0608957D
:100C70000E94350608950E9438069093690180937A
:100C80006801089590E080E00E943B06089521E00D
:100C900030E0A90102C0440F551F8A95E2F7CA014E
:100CA0000E943B06089521E030E002C0220F331F6E
:100CB0008A95E2F78091680190916901822B932BCC
:100CC0000E943B06089521E030E002C0220F331F4E
:100CD0008A95E2F72095309580916801909169019D
:100CE000822393230E943B06089521E030E002C056
:100CF000220F331F8A95E2F7809168019091690174
:100D0000822793270E943B06089520916801309125
:100D10006901822B932B0E943B0608952091680164
:100D200030916901822393230E943B06089520910C
:100D3000680130916901822793270E943B0608953C
:100D40000895262F277091E001C0990F2A95EAF7A0
:100D500023E0769567952A95E1F7660F771F660F72
:100D6000771FFA01E60FF71F50E040E0682F70E0B0
:100D70008191DF0111979B01042E02C036952795C2
:100D80000A94E2F7217021952827292328272C93FC
:100D90004F5F5F4F4430510559F70895A82FA77052
:100DA00023E0969587952A95E1F7880F991F880F7C
:100DB000991FFB01E80FF91F50E040E080E021910E
:100DC00030E00A2E02C0369527950A94E2F721708A
:100DD0003327042E01C0220F0A94EAF7822B4F5FBB
:100DE0005F4F4430510559F70895262F9A3070F41B
:100DF000863060F4682F70E086E0989F600D711D6A
:100E0000112448E451E0822F0E94A1060895292F61
:100E10009A3068F4863058F490E068E471E036E087
:100E2000239F800D911D11240E94CE06089580E01D
:100E30000895B0E0A0E0EFE1F7E00C9420217C0100
:100E4000009168011091690180916A0190916B0194
:100E5000082B192BCFE0D0E0CC24C394D12CBC2E8E
:100E6000C6010C2E02C0880F991F0A94E2F7802356
:100E70009123892B49F4219790F7B12C8B2DCDB775
:100E8000DEB7E9E00C943C21B7018C2F0E946D0D78
:100E9000019789F3F3CFCF93DF93EC010E941907F9
:100EA000BE010E946D0DDF91CF9108951F93CF93E6
:100EB000DF93EB0190914701992339F0CB010E9418
:100EC0004B07DF91CF911F910895882369F0CB01E3
:100ED0000E941907182F682FCE010E94F506BE0147
:100EE000812F0E946D0DEDCFCB010E940707182FB7
:100EF000F6CF1F93CF93DF93C0916C0116E08091E2
:100F00006D018C1304C0DF91CF911F910895D0E043
:100F10001C9FF0011D9FF00D1124E259FE4F4081EE
:100F2000518162817381848195810E94010621969D
:100F3000C770E5CF40919E0150919F016091A00143
:100F40007091A1018091A2019091A3010E940106DC
:100F500008951F93CF93DF938091A301807F09F0C1
:100F600049C08091A001882309F444C080916C019C
:100F7000C0916D0160919E0170919F01A091A101AE
:100F8000B091A201D62FD72316E0C81799F190E0AF
:100F9000109711F0DF3F19F401968770F6CF189F74
:100FA0009001199F300D1124F901E259FE4F418142
:100FB0004713F2CF40814613EFCF42814111ECCF6E
:100FC000438154814A1B5B0B483C510528F78091B3
:100FD000A3018F7080618093A301F901ED58FE4F4A
:100FE00080818F70806180838EE991E00E949005FE
:100FF0000E947907DF91CF911F910895A1E1B0E0A0
:10100000E4E0F8E00C941F218C0185E0F801DE019A
:101010001D9601900D928A95E1F7F801E2808EE924
:10102000C82E81E0D82E6091A1017091A2016115B6
:10103000710509F44EC190919E0120919F01892F65
:1010400082238F3F09F445C140815181A380B48040
:10105000F090A001F501E61BF70BFF2009F4EAC0B0
:101060008091A301382F307FE83CF10508F0A3C040
:1010700031116DC0FE2C251316C0941314C0E1105D
:1010800012C08F7080618093A3010E949A07C601ED
:101090000E9490058091A301F80185838F2D6196B0
:1010A000EAE00C943B21A114B10429F0842F85239C
:1010B0008F3F09F027C180E0F82FF170DF2E80FF0D
:1010C0003CC080916C0120916D0136E0821315C007
:1010D0004D875E878D859E850E944B07292F22951F
:1010E0002F702230F0F0243018F59F70F1F0F801E5
:1010F0009581907FD1F4D12C1EC090E0389FF001F3
:10110000399FF00D1124E259FE4F6181651306C02D
:101110006081641303C06281E6120FC0019687707C
:10112000D5CF9F7011F0882331F3805E883018F39B
:10113000C8010E949005FD2CB1CFEE2009F4AECF7E
:101140008091A30181608093A301F12CA7CF251387
:1011500006C0941304C0F801EE2009F487C0C8014A
:101160000E94E405882319F1EE2009F18091A30182
:10117000803270F020919E0130919F0138872F833B
:101180001986BB86AA868C87CE0107960E94900599
:1011900086E0F801AEE9B1E001900D928A95E1F7A1
:1011A0000E94A9070E949A07FF24F39477CFC801F1
:1011B0000E949005F9CF311113C07A2DB98AA88AFF
:1011C0006E2D89890E94F7058EE991E00E949005B5
:1011D00086E0F60111928A95E9F70E949A07B5CF49
:1011E00025130FC094130DC0E1100BC0F8018583C7
:1011F000C8010E94900586E0F60111928A95E9F7F0
:101200004DCFC8010E94E405882389F2EE2079F2CF
:101210008091A301803208F4BBCF20919E013091D0
:101220009F013A8329831B82BD82AC828E83CE01CB
:101230000196ACCFE83CF10508F03EC0FE2CEE2054
:1012400009F4B5CF25132AC0941328C08091A301B7
:1012500080FD1BC0982F907FC1F0F8018583903FDF
:1012600031F0982F907F905F8F70892B8583C80114
:101270000E94900586E0F801AEE9B1E001900D9280
:101280008A95E1F70E949A0709CF86E0F801AEE956
:10129000B1E001900D928A95E1F700CFC8010E945C
:1012A000E405811175CF8091A30181608093A30132
:1012B000C8010E949005F2CE7A2DB98AA88A6E2DB7
:1012C00089890E94F70586E0F60111928A95E9F76F
:1012D000D9CFEE2009F46BCFC8010E94E405F82EA7
:1012E000882309F464CF86E0F801AEE9B1E001900B
:1012F0000D928A95E1F78EE991E00E942A030E94FF
:10130000A907C0CF81E08E25D7CEACE0B0E0EBE8F6
:10131000F9E00C9426214F83588769877A878B8759
:101320009C87CE0107960E94FE07882369F08A8574
:101330009B85892B39F04F815885842F85238F3FDA
:1013400009F06BC016E05FC086E0FE013796DE0153
:10135000119601900D928A95E1F78A859B85892BDC
:1013600089F388859F8189238F3F61F320916D01E7
:1013700030E0C90101968770992740916C014817A8
:10138000190671F40E94C40510926D0110926C014F
:1013900086E0EEE9F1E0DF011D928A95E9F7D2CF10
:1013A00096E0929FD001939FB00D1124A259BE4F99
:1013B000FE01319601900D929A95E1F780936D01AF
:1013C0000E947907BFCF819FC001112482599E4F8F
:1013D0000E94FE078823E9F0E0916C011E9FF00156
:1013E0001124E259FE4F40815181628173818481D1
:1013F00095810E94010680916C0190E001968770B2
:10140000992780936C0180916C0190916D018913F3
:10141000DACF2C96E3E00C94422169857A858B859E
:101420009C850E9401068ECF682F809100019091CB
:1014300001010E945A190895682F8091000190912E
:1014400001010E945D1908958091000190910101B0
:101450000E94601908958091AC01859585958595C8
:1014600008958091AC01877008959091AC019770B8
:1014700081E009F480E008958091B701089590918A
:10148000B701892B8093B701089580959091B7019A
:1014900098239093B70108951092B7010895909101
:1014A000B601892B8093B601089580959091B6017D
:1014B00098239093B60108951092B60108958091F3
:1014C000AD01089508950E94620A089590912F0237
:1014D00092FF08C09091AD01981721F08093AD0163
:1014E0000E94630A08958091AD01882329F010922B
:1014F000AD0180E00E94630A0895CF93DF93E091ED
:101500000001F09101018091B7018083E091000119
:10151000F091010180819091B601892B8083909197
:10152000AD01992381F0E0910001F09101018081EA
:10153000892B808380910001909101010E941219F2
:1015400081110E94730AC0910001D091010148E00D
:1015500050E064EA71E0CE010E944E21892B59F0DF
:1015600088E0FE01A4EAB1E001900D928A95E1F7CE
:10157000CE010E940719DF91CF91089508950E942E
:10158000BE0A089590912F0292FF11C098E0899FA2
:1015900090011124622B6093AC010E94530680914C
:1015A000AC018595859585950E94BF0A08950E9496
:1015B000530608951092AC0180E00E94BF0A08957E
:1015C0009091AC01809589238093AC01282F2770DE
:1015D00091F4282F082E000C330B9217130659F0A4
:1015E00090912F0292FF07C08595859585950E9461
:1015F00063060E94DA0A089590912F0292FB222737
:1016000020F9281769F080FB92F990932F028091BE
:101610002E0290912F020E94440B82E00E94E00A69
:10162000089580912F0282FB882780F991E0892715
:101630000E94FC0A089581E00E94FC0A089580E05F
:101640000E94FC0A08956FEF7FEF90E080E00E9417
:101650009021089590E080E00E946C2121E0873E77
:101660009E4F09F020E0822F089582E090E00E94D2
:101670006421089583E090E00E946421089584E04D
:1016800090E00E946C210895BC0184E090E00E94EB
:1016900090210895AB01BC018FE090E00E9484216D
:1016A0000895AB01BC0183E190E00E94842108957C
:1016B00060E070E0CB010E94510B089560E070E0A3
:1016C000CB010E944A0B0E94580B089567EE7EEFF3
:1016D00090E080E00E94902160E082E090E00E9433
:1016E000722160E083E090E00E94722110926B0111
:1016F00010926A0160E074E184E090E00E94902121
:1017000060E086E090E00E9472216FEF87E090E059
:101710000E94722140E050E0BA0188E090E00E940F
:10172000842160E08DE090E00E94722140E050E072
:10173000BA0188E190E00E94842160E087E190E0B6
:101740000E94722140E050E0BA018CE190E00E94DA
:10175000842170E060E080E290E00E94902140E00F
:1017600050E0BA0188E190E00E9484210E945E0B63
:1017700008950E94660B0895682F8EE090E00E9405
:10178000722108950E94181A6093C8017093C901CC
:101790008093CA019093CB016093C4017093C501FB
:1017A0008093C6019093C7010895089508950E94FB
:1017B000D60B089508950E94DA0B089587E99EE0FC
:1017C0000E94E9180E94D50B0E94D70B08950E9431
:1017D00063100895089508950E94EA0B0E94EB0B90
:1017E00008950E949A0E0E94C90208950E94031A49
:1017F0000E94570E0E947E100E94C40F0E94F10B9F
:101800000E94741280E00E94CF120E9488100E94F1
:10181000DB0B0895AAE0B0E0E0E1FCE00C941F21AE
:101820000E94E70F8AEBA82E81E0B82E750110E028
:10183000F70101917F01812F0E94C00E1F5F1A30B6
:1018400009F441C00817A1F38091CC0181FD0E94E9
:10185000C60E0E94E70BC82E10E0812F0E94C00E1A
:10186000082FF50181915F01081731F1F12CEE2469
:10187000E394D02ED8268D2D8E21B1F0CC20A1F06E
:10188000FE821F8391E0802F8E2109F490E09887DB
:101890000E940C1A8160782F9A8789874E815F8118
:1018A00068858A850E94F502F394EE0CF6E0FF123B
:1018B000E2CFF501319700831F5F1A3071F60E9465
:1018C000C20B11E021C00813BFCF0E940C1A8C017B
:1018D0008091B8019091B90108171907A1F08FEF15
:1018E00089838A831B820E940C1A8160782F9D83D2
:1018F0008C8349815A816B818D810E94F5021093FE
:10190000B9010093B80110E00E9463100E945B14BB
:1019100011110E942E130E94DC022A96EAE00C9418
:101920003B21CF93DF930E94720DEC01811522E5DC
:10193000920760F5811530E5930708F0A8C0883E4E
:10194000910598F4803E9105E8F4853A910540F4BC
:1019500084309105B8F40197A9F0D0E0C0E012C03E
:101960008D3C9105D0F3D0650DC08115904408F0F1
:1019700046C0C11580E2D80708F096C0C11591E0B5
:10198000D90758F3CE01DF91CF910895803822E531
:101990009207A8F4803632E5930708F05CC08034E3
:1019A00042E5940708F042C0C03282E5D80750F102
:1019B000CF71D0E0DC2FCC27C16FD06AE3CFC03C21
:1019C00092E5D90780F48C2F8F71C03AD24508F484
:1019D00057C00E94140EC82FD0E0DC2FCC27CC2794
:1019E000DF71D062CFCFC03E32E5D30708F0B5CF6C
:1019F000DC2FCC27CC27DF71C06FD06AC3CFDF705C
:101A0000D06AC0CF2C2F2695269540E2249F9001C6
:101A100011248C2F8370C1E0D0E002C0CC0FDD1FF9
:101A20008A95E2F7C22BD32BDD68ACCF282F269501
:101A30002695277080E2289F900111248C2F8370B7
:101A4000C1E0D0E002C0CC0FDD1F8A95E2F7C22BC7
:101A5000D32BDC6897CF282F26952695277090E208
:101A6000299F900111248C2F8370C1E0D0E002C027
:101A7000CC0FDD1F8A95E2F7C22BD32BDA6882CF19
:101A8000C82FD0E0DC2FCC27C46FD06A7BCF8F71FA
:101A90000E94140E35E0D695C7953A95E1F7CF70C0
:101AA0009C2FEC01D0696ECF8D2F8F710E94140E88
:101AB00090E0982F882788279F719C012C2BE901A3
:101AC00090CF462F7A3030F4663020F4672F0E9492
:101AD000E001089590E080E008950E94610D0E9469
:101AE000910C089582389105B9F1B0F481339105D4
:101AF00009F47DC048F48932910509F46DC08A3239
:101B0000910509F47BC008958533910509F45FC000
:101B10008933910509F10895833E9105D9F138F48F
:101B2000803E910529F1823E910579F10895863E26
:101B30009105D9F1873E910509F43EC0843E910597
:101B400041F520912F0221FF24C080912E0284FDB7
:101B500019C087EE90E0089520912E02237009F0BD
:101B60005AC020912F0223FF14C089E290E008950B
:101B700020912E0220FD38C030912F0230FF09C085
:101B800024FF43C090E080E0089520912E0222FDC2
:101B9000F7CF089520912E0222FD3AC030912F02F6
:101BA00030FD39C024FFF5CFEDCF20912E0223FF69
:101BB000F0CF24FDE7CFCDCF20912E0223FD2EC004
:101BC00030912F0231FFEECF84EE90E00895209106
:101BD0002E0225FFDECFC9CF20912E0225FD21C088
:101BE00020912F0223FFD5CF89E390E0D2CF20911F
:101BF0002E0226FFCECF8AE290E0089520912E0299
:101C000026FFC7CF81E390E0089583EE90E008952A
:101C100082EE90E0089580EE90E0089586EE90E0E8
:101C2000089585E390E0089590912E0292FF06C0FA
:101C3000282F28712830F9F4877F846093FF06C02D
:101C4000282F28712831F1F4877E846120912F029A
:101C500020FF06C0382F38713830D9F4877F816073
:101C600021FF06C0282F28712831D1F4877E816199
:101C700094FD877E0895282F24712430F9F68B7FF8
:101C80008860DCCF282F2471243101F78B7E886196
:101C9000DDCF382F3171313019F78E7F8860E0CF7A
:101CA000282F2171213121F78E7E8861E1CF10929A
:101CB0002A0210922B0210922C0210922D020895EB
:101CC000CF92DF92EF92FF926B017C010E94631032
:101CD00081110EC00E94181AC61AD70AE80AF90A1A
:101CE000C0922A02D0922B02E0922C02F0922D0296
:101CF000FF90EF90DF90CF9008950F931F930E9475
:101D00006310882329F00E94181A1F910F910895DB
:101D10000E94181A00912A0210912B0220912C0285
:101D200030912D02600F711F821F931FEECF80E054
:101D3000089508950E942A0B811102C00E94B90BD8
:101D40000E94350B8093CC010E943F0B90932F0291
:101D500080932E020E94990E0E943A0B90E00E94FE
:101D6000170680916801909169010E9438060895D4
:101D700008950E94B80E089508950E94BC0E08951B
:101D8000E82FF0E0E55CFD4F80810895089580EA3A
:101D90008A95F1F7089500C008950E94C70E08952E
:101DA00008950E94D00E0895A5E0B0E0EAEDFEE0AF
:101DB0000C9423210E946310F82E60914502882321
:101DC00009F440C085E0E82E8E010F5F1F4FF80137
:101DD0008E2D11928A95E9F7862F90E0B801855CE7
:101DE0009D4F0E9496108823B9F08091300290E0B8
:101DF00045E050E0B801855C9D4F0E944E2121E0F6
:101E00002093CD01892B91F4F12C0E9435028F2D66
:101E10002596E6E00C943F218091CD018823A1F323
:101E2000F8011192EA94E9F71092CD01A0913002E5
:101E3000B0E0A55CBD4F85E0F80101900D928A9558
:101E4000E1F7E3CF70E0655C7D4F8091300290E078
:101E5000855C9D4F0E941D110E94D10ED8CFF89431
:101E6000E82FE295EF70F0E031A1282F2F7081E08C
:101E700090E001C0880F2A95EAF7982F9095932358
:101E800091A392A1892B82A3789408950F931F9315
:101E9000CF93DF93C1E3D1E089918F3F11F00E948E
:101EA0002F0F81E0C633D807B9F7CBE2D1E001E3C9
:101EB00011E089918F3F11F00E942F0F0C171D0721
:101EC000C1F7DF91CF911F910F910895B0E0A0E08D
:101ED000ECE6FFE00C942121EC01D62E062F10E059
:101EE000C8018F5C9E4F7C01FC0180818F3F09F40B
:101EF00044C0F894E82FE295EF70F0E091A18F7064
:101F000021E030E001C0220F8A95EAF7892F822B69
:101F100081A382A12095282322A378940E94CB0E2E
:101F2000EBE2F1E031E0C12C21912F3F59F1A22FDA
:101F3000A295AF70B0E090968C9190E02F7002C0A7
:101F4000959587952A95E2F780FD1CC0832FC82AB6
:101F5000330F81E0E133F80739F7F70180818F3FD4
:101F600011F00E942F0F61E0C11001C060E08D2DC3
:101F70000E94CD0EC00FD11FC882CDB7DEB7E8E0FA
:101F80000C943D2180E0E3CF809102018091020119
:101F900095E0811190E09093450285E0891B809344
:101FA00030020E94460F8AE0EBE3F2E0DF01982F57
:101FB0001D929A95E9F7E1E3F2E0DF011D928A951F
:101FC000E9F785E00E9425100E9432020895AAE0F8
:101FD000B0E0EDEEFFE00C9424218E010F5F1F4F67
:101FE0008AE0F80111928A95E9F7F12C6F2DC8016A
:101FF0000E94660FF394F5E0FF12F8CF4AE050E03C
:10200000B80181E392E00E944E2121E0009709F49B
:1020100020E0892B41F08AE0F801A1E3B2E00190D1
:102020000D928A95E1F76091450270E0655C7D4F05
:1020300045E081E392E00E942610182F0E94D40E02
:10204000812B2A96E5E00C9440210895CF92DF92EF
:10205000EF92FF920F931F93CF936C017B01042F9C
:10206000222349F081E08093D0010E940C1A9093C2
:10207000CF018093CE01C091D001C1110AC0C0E050
:102080008C2FCF911F910F91FF90EF90DF90CF9009
:1020900008958091CE019091CF010E94241A059756
:1020A00070F310E0A801B601C7010E944E21892BF0
:1020B00041F0A801B601C7010E945B211092D00136
:1020C000DFCFC0E0FBCF8091D301811107C00E9418
:1020D000F020882351F081E08093D30181E090913A
:1020E000D301913009F080E0089582E08093D3011C
:1020F0000E94EB20F3CF0E94631008950E947B1092
:10210000809302010E94631081110E94CC100895F7
:102110000E946310811102C00E94CF10089581E0D7
:102120009091D4019A3008F080E008950F931F93A6
:10213000CF93DF93EC018B018091D4018A30B8F406
:10214000B801CE010E941A11C82F811122C08091BE
:10215000D4018F3FB9F40E940C1A9093D20180935E
:10216000D1018C2FDF91CF911F910F910895809114
:10217000D1019091D2010E94241A843F914000F72E
:10218000C0E0EFCF8F5F8093D4018A3020F7C1E0A9
:10219000E8CF1092D401E5CF0E94871708950E94DE
:1021A0008A170895B0E0A0E0E8EDF0E10C94222158
:1021B0007901C82F880FDD0B41155105A9F0FE01EB
:1021C00093E0EE0FFF1F9A95E1F7ED5FFE4F8181DF
:1021D00092818B529E4F208130E04217530708F4C2
:1021E0009A01A9010E945B21CE010E947318D82E8A
:1021F0008823D1F001151105B9F083E0CC0FDD1F64
:102200008A95E1F7FE01ED5FFE4F438150E0041730
:10221000150708F4A801CD5FDE4F6C817D816B52FC
:102220007E4FC7010E945B218D2DCDB7DEB7E7E061
:102230000C943E210E940C1208950E9423120895CE
:10224000A4E0B0E0E6E2F1E10C9425216091EC011C
:102250007091ED018091EE019091EF010E94331A8F
:1022600011E0643671058105910518F10E947D0E1B
:102270006E5F7F4F8F4F9F4F69837A838B839C83E1
:1022800010E000E030E020E044E050E0BE016F5F8D
:102290007F4F82E00E94D210182F882351F00E94B5
:1022A000181A6093EC017093ED018093EE01909306
:1022B000EF01812F2496E4E00C944121B0E0A0E0EE
:1022C000E4E6F1E10C941F217C015B016A010E94AC
:1022D0008F1001E010E0882311F00AE010E0C1E067
:1022E000D0E0B501C701F6010995811104C021961E
:1022F0000C171D072CF4CDB7DEB7EAE00C943B2198
:10230000CC9F9001CD9F300D300D112490E080E0E6
:1023100045E34A95F1F70000019682179307C1F74C
:10232000E0CFA6E0B0E0E7E9F1E10C941F217B01EA
:10233000C0903601D090370101E010E09E012A5F85
:102340003F4F50E040E070E060E080E00E94D2103B
:10235000182F882309F448C056018FEFA81AB80A2D
:102360006091E8017091E9018091EA019091EB019F
:102370000E94331A643671058105910568F105E004
:1023800010E09E012F5F3F4F50E040E070E060E0C2
:1023900081E00E94D210D82E65E070E0C5010E9455
:1023A000751211E09E81981310E01D2141F10E94E9
:1023B000181A6093E8017093E9018093EA01909301
:1023C000EB0185E0FE013196A3EEB1E001900D92A4
:1023D0008A95E1F711E013C065E070E0C5010E9445
:1023E00075129E818913CBCF85E0F6013196DE010F
:1023F000119601900D928A95E1F71111E2CF85E0D7
:10240000E3EEF1E0D70101900D928A95E1F7812F7B
:102410002696EAE00C943B210F931F93CF93DF9312
:10242000EC018B0141E951E10E945E11882331F0FA
:1024300040E251E1B801CE010E945E11DF91CF91DF
:102440001F910F9108950F931F93CF93DF93C09126
:102450003601D0913701CE01019625E0FB01DC0168
:1024600001900D922A95E1F765E070E00E947512E7
:1024700088836E817F81888599850091DF01109125
:10248000E0012091E1013091E201601771078207BC
:10249000930751F06093DF017093E0018093E101B5
:1024A0009093E2010E94600EDF91CF911F910F91F6
:1024B00008950E94D81B0E94F60B0E94E51B089508
:1024C0000E94EA1B0E940A0C0E94041C08950E94AC
:1024D000A5190E94BE1B0E94DE0B0E9459120E9489
:1024E00060120E94EC0BFBCF0895FC01680F791F6E
:1024F0008FEF91E3E617F70709F4089521918227FA
:1025000028E030E087FF06C0880F89272150310975
:10251000C9F7F0CF880FFACFB0E0A0E0E2E9F2E12E
:102520000C9421216C017B0164E670E088E70E9435
:102530004716EC0197FD12C010E000E0F601E00F35
:10254000F11F849164E670E00E94B316EC01892BC0
:1025500029F40F5F1F4F0E151F0581F70E942917E1
:10256000CE01CDB7DEB7E8E00C943D2108950E947E
:10257000B6120895E6E4F2E080E092E0DF019C010B
:102580001D9221503040E1F7F0934D04E0934C044C
:102590008FEF9FEF909316028093150208950E948B
:1025A000B6120E94B7128093110280FD0FC080E81E
:1025B000809310020E9441166DE070E083EA92E081
:1025C0000E948C12892B21F080E0089580E2F0CFE8
:1025D0008091110263E070E081FD26C080EA92E004
:1025E0000E948C12892B81F76DE070E080E992E007
:1025F0000E948C12892B41F70E94181A605A75416B
:102600008F4F9F4F609348047093490480934A040E
:1026100090934B040E94BA1281E08093140280933D
:1026200013021092120208958DE992E0D9CF209101
:10263000100236E0839FC0011124629F800D911D1E
:102640001124811522E0920714F090E080E08A5B6B
:102650009D4F90934D0480934C04089580911402F3
:10266000811103C08091130208950E94181A605AC4
:1026700075418F4F9F4F6093480470934904809336
:102680004A0490934B04809113028111EBCF62E0D6
:1026900070E08EE892E00E948C12892B19F781E09D
:1026A00080931302DFCFB0E0A0E0E9E5F3E10C9402
:1026B0001B218091150290911602892B09F4BDC04F
:1026C00080911402882309F4B8C08091120281110C
:1026D000B4C00E942E1320911502309116022115CC
:1026E000310509F4AAC080E041E050E0082F10E075
:1026F000EA01082E02C0CC0FDD1F0A94E2F7BE01EA
:1027000062237323672B11F48F5FF0CF9091110236
:1027100090FF98C0880F880F880F80931D0110923A
:102720002001895F80931E0183E08093210124E6CC
:1027300030E047E050E06BE171E088E70E94E1168D
:10274000892B09F07AC0A80125E0440F551F2A956E
:10275000E1F78091110280FF87C0E0EFF1E080E2B5
:10276000DF011D928A95E9F70CE311E088E3E82E7A
:1027700081E0F82E97E0992E88248394D801ED917A
:102780008D01D7016D917D01640F752F711D6A5BFD
:102790007D4FF0E0E051FE4F30E020E0792C721ADE
:1027A000A82C022E01C0AA0C0A94EAF76B0190E053
:1027B000D6018D916D018A21A72DA91BA770BA2E74
:1027C0000A2E000CBB0B682E01C0660CBA94EAF707
:1027D000B62CB195A195B109A770BB2701C086950C
:1027E000AA95EAF7A62DA82B80818A2B80839F5F6C
:1027F0009830F1F62F5F3F4F31962830310571F652
:1028000081E00034180709F0B9CF04E610E020E2B7
:1028100030E040EF51E060E488E70E940217892B26
:1028200061F4C095D0958091150290911602C8234D
:10283000D923D0931602C0931502CDB7DEB7EEE0D0
:102840000C9437218295880F807680931D01980122
:10285000369527953695279520932001815E8093A4
:102860001E011092210163CF4A5B5D4F04E610E028
:1028700020E230E0D0CF80911302909114029111A8
:1028800003C091E089270895882369F062E070E031
:102890008CE892E00E948C12892B19F0809113022F
:1028A00008951092130280911302EBCF81E00895F6
:1028B0000E94561408950F931F9380911402882349
:1028C00079F180914604909147040E94241AC2979E
:1028D00060F00E940C1A909347048093460460E0D5
:1028E00080E00E9417130E9458140E945313809195
:1028F00013028823A9F00E94181A0091480410912D
:10290000490420914A0430914B04601B710B820BE7
:10291000930B6F3F7F4F8F4F9F4710F40E943B14E4
:102920001F910F910895CF93DF93EC01FB018281FA
:10293000882309F4D2C09E0130572332310508F0B4
:10294000B2C00E943F0B90932F0280932E02FE0193
:10295000E150F047E232F10520F4EC54FE4D0C94C6
:10296000112180912E02816080932E0293C080916C
:102970002F02886080932F028DC080912E0282608A
:10298000F3CF80912E028460EFCF80912E02886079
:10299000EBCF80912F028160EDCF80912F0282607A
:1029A000E9CF80912E028061DFCF80912E0280627C
:1029B000DBCF80912E028064D7CF0E94C405809126
:1029C0002E028068D1CF80912E028C60CDCF809175
:1029D0002F028360CFCF80912E028E7FC5CF809152
:1029E0002F02877FC7CF80912E028D7FBDCF809130
:1029F0002E028B7FB9CF80912E02877FB5CF809139
:102A00002F028E7FB7CF80912F028D7FB3CF809121
:102A10002E028F7EA9CF80912E028F7DA5CF80912F
:102A20002E028F7BA1CF0E94C40580912E028F774A
:102A30009BCF80912E02837F97CF80912F028C7F36
:102A400099CF80912E0282FB992790F921E092275D
:102A500090FB82F990FB83F987CF80912F02982F0A
:102A6000909591708E7F892B90FB81F983CF909107
:102A70002E02892F8F7B96FF806476CF0E94C4053B
:102A800090912E02892F97FB87F980586DCF81E0B6
:102A90000E94BC0B80912E0290912F020E94440B49
:102AA0000E94C40580E0DF91CF91089580E0F0CFCF
:102AB00090912E02892F8F7E94FF806155CF909147
:102AC0002E02892F8E7F90FF81604ECF90912F0232
:102AD000892F877F93FF88604DCF81E0E4CFCF932C
:102AE000DF93EB0186319C4711F50E943C0A9A81E5
:102AF000992399F08A7A91E009F490E09093170273
:102B0000811109C089E20E94140A0E947D0A80E0B6
:102B1000DF91CF91089585E3F6CF8091170281115F
:102B200004C089E20E941C0AF0CF85E3FBCF81E05C
:102B3000EFCF0F931F93CF93DF93C42FD22FFC01BE
:102B400082818823C9F040931A020E940C1A909344
:102B500019028093180280E28C0F883040F4C7700D
:102B600081E001C0880FCA95EAF70E949403DF91C3
:102B7000CF911F910F91089510911A02141332C032
:102B800080911802909119020E94241A883C9105A4
:102B900048F5C0E2CD0F1D17B9F080E2810F8830F3
:102BA00040F4177081E001C0880F1A95EAF70E947F
:102BB0009B03C83048F481E09D2F977001C0880FB7
:102BC0009A95EAF70E949403802F0E948B03C830E5
:102BD00070F6D77081E001C0880FDA95EAF70E949D
:102BE0009B03C5CF80E28C0F883008F6C77081E068
:102BF00001C0880FCA95EAF7F2CF0F93DB01885125
:102C00009C4787309105A0F5FC01EA52FE4D0C94DB
:102C1000112106E221EE41EE6AE17CE7CD010E943E
:102C2000991580E00F91089507E225EE45EE6BE1DE
:102C30007CE7F4CF06E221EE40EE68E17CE7EECFE0
:102C400007E225EE44EE69E17CE7E8CF06E221EEFB
:102C500042EE6CE17CE7E2CF07E225EE46EE6DE165
:102C60007CE7DCCF08E221E045EE6EE17CE7D6CFE1
:102C700012968C91882319F010921A02D3CF81E01A
:102C8000D1CF1092B9008CE08093B8000895B0E0E5
:102C9000A0E0EDE4F6E10C941E21B82EEB010E94B9
:102CA0000C1A6C01EE24E394F12CC431D10560F0D0
:102CB00025E0E22EF12CCF3FDC0731F0CE0164E1BC
:102CC00070E00E94FD207B0184EAA82E94E8992EF2
:102CD0001092BC00A092BC000E940C1A8C01809142
:102CE000BC0087FF0DC08091B900887F8830F9F063
:102CF0008091B900887F8031D1F00FEF1FEF08C0BD
:102D0000C8010E94241AE816F90648F70EEF1FEFD3
:102D1000CF3FDC07E9F2C6010E94241AC817D90781
:102D2000B8F6C801CDB7DEB7EBE00C943A21B0920B
:102D3000BB009092BC000E940C1A8C018091BC00D8
:102D400087FF0AC08091B900887F883111F08034F4
:102D5000A1F610E000E0E5CFC8010E94241AE816B1
:102D6000F90660F7D3CF0F931F93CF93DF93EB0157
:102D70008093BB0084E88093BC000E940C1A8C01F5
:102D80008091BC0087FF11C02091B900287F81E0AD
:102D900090E0283211F490E080E0919581959109BE
:102DA000DF91CF911F910F910895CF3FDC0741F341
:102DB000C8010E94241AC817D90710F78EEF9FEF99
:102DC000EFCFB0E0A0E0E7EEF6E10C9421216B013B
:102DD0008A017901B9010E944716E6010C0D1D1DFB
:102DE000C017D10711F097FF08C024E92093BC0059
:102DF000CDB7DEB7E8E00C943D21B70189910E9480
:102E0000B316EECFB0E0A0E0E8E0F7E10C942121AA
:102E1000C62F6A017901B8010E94471697FD0CC0C0
:102E2000B8018C2F0E94B316E601EC0CFD1CCE15E8
:102E3000DF0511F097FF08C024E92093BC00CDB74F
:102E4000DEB7E8E00C943D21B80189910E94B316E9
:102E5000EECF84E98093BC0008958EE14A9B02C0C6
:102E60008150E1F74A9BFECF08955A9880E28A95F7
:102E7000F1F75A9A0895FC013BE03A95F1F798E092
:102E800020E080E031E040E14A95F1F7880F4A9B6D
:102E900002C08160232742E04A95F1F7000040E13B
:102EA0004A95F1F7915079F790E19A95F1F799B138
:102EB00032E03A95F1F7000040E14A95F1F792FBD4
:102EC000992790F992272081920F90830895A1E08D
:102ED000B0E0EDE6F7E10C94232119828C017C012E
:102EE000E60EF11C0E151F0541F481E09981911148
:102EF00080E02196E6E00C943F210E942D17CE0140
:102F000001960E943B17F80181938F01EBCF529AF3
:102F10005A9A089552985A9AEA9AE9E6F0E080811E
:102F20008F7C808308956150770B91E001C0990FE9
:102F30006A95EAF720E031E0911108C0222391F070
:102F40005A9A80E28A95F1F75A980895492F4823B2
:102F500039F05A9A232740E24A95F1F79695ECCF3B
:102F60005A98F9CF5A98EDCFFF920F931F93CF93B2
:102F7000DF93EC018C01060F111DC017D10729F456
:102F8000CDB7DEB7E5E00C944021F9900E943517EB
:102F900068E08F2D0E949317F0CF1F920F920FB60B
:102FA0000F9211240F931F932F933F934F935F938F
:102FB0006F937F938F939F93AF93BF93EF93FF9301
:102FC000CF93DF930F92CDB7DEB719820E942D17F2
:102FD000CE0101960E943B17082F0695069506958F
:102FE000282F22952570902F9570290F922F93707E
:102FF00026952695920F982797708981982B09F02E
:103000005CC0043008F059C080E18A95F1F75A9A03
:10301000529A82E08A95F1F700C05A9888E0089F9A
:1030200080011124D801AD5FBE4F1696ED91FC9141
:1030300017973097A9F06091360170913701149677
:103040002D913C911597260F371F11968D919C91CC
:103050001297680F791F13964C9113978C910995CD
:10306000F801ED5FFE4F6381662351F02091360138
:103070003091370184819581820F931F0E94B4178C
:103080000E94351780E18A95F1F75A9852985A9A1A
:1030900080E18A95F1F7F801ED5FFE4F60816623CC
:1030A00051F0209136013091370181819281820F58
:1030B000931F0E9467170E942D170F90DF91CF91E9
:1030C000FF91EF91BF91AF919F918F917F916F9100
:1030D0005F914F913F912F911F910F910F900FBED4
:1030E0000F901F9018950F931F93CF93DF93EC01D0
:1030F00004970CF04CC0F894529A5A9885E08A953F
:10310000F1F700009C2F969595708C2F8570980F85
:10311000892F83709695969523E0CC0FDD1F2A9515
:10312000E1F7980F8E01092B0E94351700C068E067
:10313000802F0E94931780E18A95F1F752985A9A4E
:103140004A9B1EC087E090E04A991CC0FE01ED5FDB
:10315000FE4F63816623F9F02091360130913701EB
:1031600084819581820F931F0E946717811113C07C
:10317000529A5A9A7894DF91CF911F910F910895A6
:1031800000C0DECF019729F4529A5A9A789480E0D1
:10319000F2CF00C0D9CF0E942D1780E28A95F1F7B7
:1031A0005A98529A80E18A95F1F7CD5FDE4F688197
:1031B000662351F0209136013091370189819A813F
:1031C000820F931F0E94B4170E943517789481E0F4
:1031D000D2CF9093410180934001089590931D02B6
:1031E00080931C0208950E946310811103C0809196
:1031F0001B020895E0911C02F0911D02309729F006
:103200000190F081E02D0995089580E00895E09106
:103210001C02F0911D02309721F00280F381E02D15
:10322000099508959C012E5F3F4FAC01485F5F4FA9
:1032300080E02417350709F40895F90191919F0161
:103240009923B9F38F5FF5CF662349F0FC013296DD
:1032500008962191261729F0E817F907D1F780E0A1
:10326000089581E008959C01FC0132969FEF80E073
:103270004191461751F09F3F19F4411101C0982F19
:103280008F5F8630A9F79F3F09F40895290F311DFC
:1032900097FD3A95F90162830895FC0132960896EC
:1032A0002191261303C0DF0111971C92E817F9073B
:1032B000B9F708950E94331908950E944D19089591
:1032C000029626E0FC0111922A95E9F708950895E7
:1032D0000E9467190895811106C081E080931E0243
:1032E0000E946819089582E0F9CF83E080931E025E
:1032F0000E94681908950E946B19089581E08093D7
:103300001E020E94681908950E947E19089508956A
:1033100008950E9488190895089508950E948719B4
:103320000895CF930E948C190E94E70F0E948D1977
:10333000C0E08C2F0E94C00E811105C0CF5FCA3043
:10334000C1F7CF91089581E0FCCF85B7806885BF34
:1033500085B7806885BF08951F921FB61F921124FC
:103360008F939F93AF93BF9380911F02811113C0DE
:1033700080914E0490914F04A0915004B09151045B
:103380004196A11DB11D80934E0490934F04A093CC
:103390005004B0935104BF91AF919F918F911F90B2
:1033A0001FBE1F90189580915604843031F10E9401
:1033B000A70210921F0288E190E020E40FB6F89473
:1033C000A895809360000FBE2093600083B7817F33
:1033D000846083BF83B7816083BF7894889583B707
:1033E0008E7F83BF0FB6F894A895809160008861A6
:1033F00080936000109260000FBE08950E94C40583
:103400000E94AE02089582E084BD93E095BD9AEFDC
:1034100097BD80936E0008952FB7F89480914E0465
:1034200090914F04A0915004B09151042FBF089582
:103430002FB7F89460914E0470914F04809150041E
:10344000909151042FBF08959C014FB7F89480913B
:103450004E0490914F04A0915004B09151044FBF7D
:10346000821B930B0895CF92DF92EF92FF922FB7BA
:10347000F894C0904E04D0904F04E0905004F09027
:1034800051042FBFA7019601261B370B480B590B80
:10349000CA01B901FF90EF90DF90CF900895789422
:1034A0001F921FB61F9211248F939F93AF93BF93C8
:1034B00080914E0490914F04A0915004B09151041A
:1034C0000196A11DB11D80934E0490934F04A093CB
:1034D0005004B0935104BF91AF919F918F911F9071
:1034E0001FBE1F90189587E797E790930108809378
:1034F000000888E19AE00FB6F894A89580936000E0
:103500000FBE90936000FFCF88E19AE00FB6F89469
:10351000A895809360000FBE90936000FFCF8091CC
:1035200028020895089508959B01BA0190915604C8
:103530009430E9F48F708093E9009FEF8091E80068
:10354000915085FD06C085ED8A95F1F70000911137
:10355000F5CF8091E80085FF0AC050E040E0C90146
:103560000E94641C8091E8008E778093E8000895A3
:10357000CF93DF93EC0148E050E0BC0181E00E9472
:10358000941A88E0FE01A0E2B2E001900D928A95C3
:10359000E1F7DF91CF91089580915504811109C021
:1035A0000E94F41D0E94511E8091E200846080936D
:1035B000E20008951092550408950E947E1908951E
:1035C0006091520481E0611101C080E00E94751990
:1035D00008959091560481E0943009F080E0609164
:1035E00052040E947B19089542E061EC81E00E9440
:1035F000701D9091560481E0943009F080E0609154
:1036000052040E946B19089580915804833009F484
:1036100061C030F48130D1F1823009F49EC0089548
:103620008A3009F48AC08B3009F46FC0893009F000
:1036300050C080915704813209F04BC080915B04E7
:1036400090915C04892B09F044C08091E800877F49
:103650008093E8008091E80082FF37C09091F300EA
:103660008091F200029731F48091F100813011F0E5
:10367000863021F48091F100809328028091E80047
:103680008B778093E8000E94A41D23C0809157048B
:10369000813AF9F48091E800877F8093E800809177
:1036A0005B0490915C04892B61F468E080E292E015
:1036B00070E00E94B31C8091E8008B778093E80053
:1036C000089560E090E080E0F3CF8091560481118E
:1036D000C1CF089580915704813AD9F780915B0456
:1036E00090915C04892BA9F78091E800877F8093F3
:1036F000E8008091E80080FFFCCF80912A01809350
:10370000F1008091E8008E77BCCF80915704813220
:1037100001F780915B0490915C04892BD1F6809134
:10372000E800877F8093E8000E94A41D80915904DF
:1037300080932A010E94C405089580915704813224
:1037400041F68091E800877F8093E8000E94A41DE5
:1037500080915A0480932902089580915704813AF8
:1037600009F0B7CF8091E800877F8093E8008091CF
:10377000E80080FFFCCF80912902C1CF84B7877F0A
:1037800084BF0FB6F894A8958091600088618093FB
:103790006000109260000FBE80E890E00FB6F894D1
:1037A00080936100909361000FBE0E948419089578
:1037B0000E94F41D0E94511EE2EEF0E080818460C0
:1037C000808378940E94D020089582E291E00E9444
:1037D000EE18089580915604853031F48091560496
:1037E000853019F00E94FE1908950E94D319809126
:1037F0005404882399F30E949119882379F30E9435
:103800004E1C0E94C405EACF08950E94081C08952A
:10381000292F332723303105C9F058F421303105E1
:1038200099F122303105A9F190E080E030E020E00C
:103830001DC02132310509F122323105A9F780E49A
:1038400090E02AE033E0672B79F710C099278130A8
:10385000910581F0009729F0029731F7E0EBF2E053
:1038600002C0E2EDF2E0849190E09F01FA01318321
:1038700020830895E0ECF2E0F6CF89E090E028EEB6
:1038800032E0672B89F6F2CF82E190E028EF32E058
:10389000EDCF82E290E026ED32E0E8CF80E189BD15
:1038A00082E189BD09B400FEFDCF8091D8008F7DF3
:1038B0008093D8008091E00082608093E000809146
:1038C000E00081FDFCCF0895AF92BF92CF92DF92CE
:1038D000FF920F931F93CF93DF936C01EB018A014B
:1038E0000E94C31DF82E811123C00115110539F066
:1038F000F80180819181C81BD90BC80ED91EB12C4B
:10390000A12C2097A9F08091E80085FD22C080912C
:10391000E8008E778093E80001151105A1F0F80109
:1039200080819181A80EB91EB182A08285E0F82E17
:103930008F2DDF91CF911F910F91FF90DF90CF904E
:10394000BF90AF9008950E94C31D8823D1F2F82E36
:10395000EFCFF60181916F018093F1002197FFEF86
:10396000AF1ABF0ACECFFC0180915D0490915E0436
:1039700086179707A0F06115710529F49091E8006A
:103980009E779093E80090E06115710551F49111D4
:1039900008C08091E80082FF34C080E00895BC0137
:1039A000F2CF809156048823C1F18530C1F1809116
:1039B000E80083FD30C08091E80082FDEACF80916D
:1039C000E80080FFE1CF8091F3002091F200382FD2
:1039D0006115710519F02830310558F091E0283053
:1039E000310509F090E02091E8002E772093E8005F
:1039F000CBCF81918093F100615071092F5F3F4FD0
:103A0000E7CF80915604882341F0853041F08091C2
:103A1000E80083FFBECF81E0089582E0089583E04F
:103A20000895FC0180915D0490915E0486179707CC
:103A3000A0F06115710529F48091E8008E778093DC
:103A4000E80090E06115710551F4911108C0809172
:103A5000E80082FF35C080E00895BC01F2CF80917C
:103A600056048823C9F18530C9F18091E80083FDAF
:103A700031C08091E80082FDEACF8091E80080FFAC
:103A8000E1CF8091F3002091F200382F611571058C
:103A900019F02830310558F091E02830310509F04F
:103AA00090E08091E8008E778093E800CBCF8491FE
:103AB0008093F1003196615071092F5F3F4FE6CF3F
:103AC00080915604882341F0853041F08091E800D0
:103AD00083FFBDCF81E0089582E0089583E00895DB
:103AE000982F973028F08F708093E90081E0089537
:103AF0009093E900242F762F50E0981731F07091C1
:103B0000EC002091ED005091F00021FD02C09F5F7C
:103B1000E8CF3091EB003E7F3093EB003091ED0029
:103B20003D7F3093ED003091EB0031603093EB003E
:103B30007093EC002093ED005093F0002091EE0084
:103B400027FDE5CF80E008958091570487FF13C0DB
:103B50008091E80082FF06C08091E8008B77809317
:103B6000E80004C0809156048111F2CF089580913D
:103B700056048823D9F38091E80080FFF8CF809124
:103B8000E8008E77ECCF2091E4003091E50095E6D7
:103B9000A9012091EC00822F817020FF06C0809146
:103BA000E80080FF06C080E008952091E80022FD33
:103BB0001AC080915604882389F0853089F080915D
:103BC000EB0085FD0FC02091E4003091E500421725
:103BD0005307F9F29150E1F684E0089582E00895E8
:103BE00083E0089581E008950E94631E0E946B1E89
:103BF000E0EEF0E0808181608083E8EDF0E080819C
:103C00008F77808319BCA7EDB0E08C918E7F8C9369
:103C100080818F7E80831092550408950F931F93A7
:103C2000CF93DF930E94631E0E946B1EC8EDD0E00D
:103C300088818F77888388818068888388818F7D59
:103C4000888319BC109256041092520410925404A6
:103C50001092530400EE10E0F80180818B7F808386
:103C600088818160888342E060E080E00E94701D6E
:103C7000E1EEF0E080818E7F8083E2EEF0E08081F3
:103C800081608083808188608083F80180818E7F5D
:103C90008083888180618883DF91CF911F910F910C
:103CA0000895E8EDF0E080818F7E8083E7EDF0E01D
:103CB00080818160808384E082BF81E080935504AD
:103CC0000E940E1E0895E8EDF0E080818E7F8083D3
:103CD0001092E20008951092DA001092E100089527
:103CE0001F920F920FB60F9211242F933F934F9371
:103CF0005F936F937F938F939F93AF93BF93EF9354
:103D0000FF938091E10082FF0BC08091E20082FF6F
:103D100007C08091E1008B7F8093E1000E94CF205B
:103D20008091DA0080FF19C08091D80080FF15C013
:103D30008091DA008E7F8093DA008091D90080FF35
:103D400096C080E189BD82E189BD09B400FEFDCF46
:103D500081E0809356040E94CC1A8091E10080FF9C
:103D600019C08091E20080FF15C08091E2008E7F33
:103D70008093E2008091E20080618093E200809174
:103D8000D80080628093D80019BC85E080935604E7
:103D90000E94E01A8091E10084FF2BC08091E20034
:103DA00084FF27C080E189BD82E189BD89B5982F54
:103DB000917080FFFBCF8091D8008F7D8093D800D9
:103DC0008091E1008F7E8093E1008091E2008F7E00
:103DD0008093E2008091E20081608093E200809114
:103DE0005204882309F449C084E0809356040E9459
:103DF000E91A8091E10083FF29C08091E20083FFEE
:103E000025C08091E100877F8093E10082E080936C
:103E10005604109252048091E1008E7F8093E1005D
:103E20008091E2008E7F8093E2008091E2008061C9
:103E30008093E20042E060E080E00E94701D80918B
:103E4000F00088608093F0000E94DD1AFF91EF91EE
:103E5000BF91AF919F918F917F916F915F914F91A2
:103E60003F912F910F900FBE0F901F90189519BC86
:103E7000109256040E94DA1A70CF8091E30087FDF9
:103E800093E090935604B3CF1F920F920FB60F9208
:103E900011242F933F934F935F936F937F938F934F
:103EA0009F93AF93BF93CF93DF93EF93FF93D09103
:103EB000E900DF708091EC00C82FC17080FDC0E880
:103EC0001092E9008091F000877F8093F000789451
:103ED0000E94881F1092E9008091F0008860809312
:103EE000F000CD2BCF70C093E900FF91EF91DF91EF
:103EF000CF91BF91AF919F918F917F916F915F9182
:103F00004F913F912F910F900FBE0F901F901895DA
:103F1000AAE2B0E0EEE8FFE10C94262187E594E008
:103F20002091F100FC012193CF01F4E08F359F0730
:103F3000B9F70E94041B8091E80083FF1EC18091A5
:103F40005704909158049A3008F017C1E92FF0E017
:103F5000E352FE4D0C941121803899F0823809F01B
:103F60000CC180915B048F70873008F006C180938C
:103F7000E9008091EB0085FB882780F91092E90029
:103F800006C08091530490915404911182609091E5
:103F9000E800977F9093E8008093F1001092F10081
:103FA0008091E8008E77E5C0882309F4D3C0823081
:103FB00009F0E3C0809159048111D6C080915B045F
:103FC0008F702FEF280F263008F0D7C08093E900BC
:103FD0002091EB0020FFC8C0933031F48091EB00BA
:103FE00080628093EB00C0C09091EB009061909351
:103FF000EB0021E030E001C0220F8A95EAF7209320
:10400000EA001092EA008091EB008860EACF81110B
:10401000B4C0109159041F778091E3008078812B00
:104020008093E3008091E800877F8093E8000E94FE
:10403000A41D8091E80080FFFCCF8091E3008068A0
:104040008093E30082E0111183E08093560495C0D1
:104050008058823008F091C08091590490915A04A0
:104060008C3D23E09207A1F583E08A838AE289836D
:104070004FB7F894DE01139620E03EE051E2E32FC3
:10408000F0E050935700E49120FF03C0E295EF70F9
:104090003F5FEF708E2F90E0EA30C0F0C7968D93AF
:1040A0009D932F5F243159F74FBF8091E800877FA0
:1040B0008093E8006AE270E0CE0101960E94B31C92
:1040C0008091E8008B778093E80057C0C096E7CFD7
:1040D00060915B0470915C04AE014F5F5F4F0E9482
:1040E000051CBC01892B09F448C09091E800977F1A
:1040F0009093E80089819A810E94111DE1CF803858
:10410000E1F58091E800877F8093E8008091520478
:104110008093F10045CF811130C0909159049230C5
:1041200060F58091E800877F8093E80090935204C7
:104130000E94A41D80915204882311F084E005C0E0
:104140008091E30087FDFACF81E0809356040E94BE
:10415000F41A13C080915904813079F481E09330CE
:1041600009F080E0809354041092E9008091E80007
:10417000877F8093E8000E94A41D8091E80083FF60
:104180000AC08091E800877F8093E8008091EB006F
:1041900080628093EB00AA96E3E00C94422108959C
:1041A000CF93809156048823A1F0C091E900CF708D
:1041B0009091EC00892F817090FD80E8C82B1092BF
:1041C000E9008091E80083FD0E94881FCF70C093B2
:1041D000E900CF9108950E94F41D109256040895AD
:1041E000E8EDF0E08081806180838AE18A95F1F7D3
:1041F00000C08091D90081700895AA1BBB1B51E1BA
:1042000007C0AA1FBB1FA617B70710F0A61BB70B46
:10421000881F991F5A95A9F780959095BC01CD01EB
:104220000895EE0FFF1F0590F491E02D09942F9251
:104230003F924F925F926F927F928F929F92AF9236
:10424000BF92CF92DF92EF92FF920F931F93CF9383
:10425000DF93CDB7DEB7CA1BDB0B0FB6F894DEBF1A
:104260000FBECDBF09942A88398848885F846E8440
:104270007D848C849B84AA84B984C884DF80EE808A
:10428000FD800C811B81AA81B981CE0FD11D0FB693
:10429000F894DEBF0FBECDBFED010895FB01DC0138
:1042A00004C08D910190801921F441505040C8F70D
:1042B000881B990B0895FB01DC0102C001900D924F
:1042C00041505040D8F70895F999FECF92BD81BD75
:1042D000F89A992780B50895A8E1B0E042E050E04F
:1042E0000C949821262FF999FECF92BD81BDF89AA2
:1042F000019700B4021639F01FBA20BD0FB6F8942A
:10430000FA9AF99A0FBE08950396272F0E947321F7
:104310000E947221252F0E947321242F0C94732157
:104320000196272F0E9473210C947221DC01CB018E
:10433000FC01F999FECF06C0F2BDE1BDF89A3196B5
:1043400000B40D9241505040B8F70895F894FFCF53
:10435000DD03DD030E040E043D043D043D043D0475
:10436000A004110520052005EB145F15F314BD14FE
:10437000C114F714C514FB140715D1145815D5141E
:104380000B15D9140F153715DD1413153E15E3144D
:1043900019152115C914FF14CD140315E7141D15A3
:1043A0002D1547155615B714EF1466151A16201655
:1043B0000916141626162C163216AC1FD41FBD2053
:0E43C000D41FBD2007202820BD207F208B2089
:1043CE00AE01010000000100000000000000050128
:1043DE0000000004060000000000000021007F2203
:1043EE0000038F1AB81A931A921A01F6F731333264
:1043FE00366697C63435D501000810181810080017
:00000001FF
