:100000000C94A5010C94C2010C94C2010C94D2185A
:100010000C94C2010C94C2010C94C2010C94C20154
:100020000C94C2010C94C2010C94981F0C946C2087
:100030000C94DD1A0C94C2010C94C2010C94C20100
:100040000C94C2010C94C2010C94C2010C94C20124
:100050000C94C2010C94801B0C94C2010C94C2013C
:100060000C94C2010C94C2010C94C2010C94C20104
:100070000C94C2010C94C2010C94C2010C94C201F4
:100080000C94C2010C94C2010C94C2010C94C201E4
:100090000C94C2010C94C2010C94C2010C94C201D4
:1000A0000C94C2010C94C2010C94C20129001E00E0
:1000B0001F002000210022002B0014001A0008005D
:1000C00015001700E00004001600070009000A00F0
:1000D000E1001D001B000600190005000000E30000
:1000E000E200280001512F003500270026002500DE
:1000F000240023002D00130012000C0018001C0027
:10010000340033000F000E000D000B00E500380036
:10011000370036001000110000004C002A002C00AF
:100120000251300001000100010001000100010046
:100130003A003B003C003D003E003F0035001E02FF
:100140001F02200221022202010001000100010021
:100150000100010000000100010001000100010098
:100160000100010001000100010001004500440000
:1001700043004200410040003502270226022502CA
:1001800024022302310230022F022E022D0200002F
:100190000000010001000351010001000100010005
:1001A000010001000100010035001E001F002000B9
:1001B000210022003A003B003C003D003E003F0091
:1001C000400041004200430044004500000001009F
:1001D00001000351010001000100010001000100C4
:1001E0000100010001002700260025002400230053
:1001F00000004F005200510050000000310030005C
:100200002F002E002D002E02000001000100010031
:1002100001000100000000000000000000000000DC
:1002200000000000000000000000000000000000CE
:1002300000000000000000000000000000000000BE
:1002400000000000000001000100010001000000AA
:10025000000000000000000000000000000000009E
:10026000000000000000000000000000000000008E
:10027000000000000000000000000000000000007E
:1002800000000100010001000100000000AE00AF0D
:1002900000DA0281FFD9F1DB20A4A62EAF00A0C0B6
:1002A00000A1C800AED580A81FD300408D14200047
:1002B0000E034C0069006C00790035003800000026
:1002C00010036C0069006C00690075006D0073001C
:1002D00000000403090409022200010100A0FA0938
:1002E0000400000103010100092111010001224065
:1002F0000007058103080001120100020000000848
:10030000D8042DEB00010102000105010906A1013D
:10031000050719E029E715002501950875018102F7
:100320009501750881010507190029FF150026FFB1
:1003300000950675088100050819012905950575C0
:10034000019102950175039101C011241FBECFEFE9
:10035000DAE0DEBFCDBF11E0A0E0B1E0ECECF5E407
:1003600002C005900D92A434B107D9F724E0A4E4AB
:10037000B1E001C01D92AD36B207E1F70E94EB1269
:100380000C94CE220C94000081E0089581E0089541
:100390000E94C601089508950E94CB010895A5E02A
:1003A000B0E0E5EDF1E00C944E2249835A833091A0
:1003B000470189819A81311119C0662399F022235E
:1003C00089F00E948407182F682F89819A810E94E2
:1003D000600769817A81812F0E94DD0D2596E3E017
:1003E0000C946A220E947207182FF3CF0E94840790
:1003F00069817A81F1CFFC01262F40815181628190
:10040000738184810E94CF01089581E00895CF9384
:10041000DF93EC0160E00E94FB01BE010E94CC0171
:10042000DF91CF9108950E94400F08950E94440FDC
:10043000089508950E94AF050E9419022FEF84E3EA
:100440009CE0215080409040E1F700C000000895FA
:100450000E941A020E94A41B08950E941A020E9480
:10046000B51B08950F931F93CF93DF938C0161E029
:100470000E94FB01EC01B8010E94C801811106C075
:1004800080E0DF91CF911F910F910895B801CE01C7
:100490000E94F1168823A1F3B801CE010E9426150F
:1004A000882371F3B801CE010E946316882341F3BB
:1004B000F8018281882361F0CB35FDE5DF0701F18A
:1004C00058F4C115ECE5DE0791F0CF3DDC4591F025
:1004D000C8010E94C401D5CFCD358DE5D80769F09C
:1004E00090F0C83ADD45A1F70E942D02C9CF0E94C5
:1004F0002802C6CF0E94430CF7CF0E94840BE8CF9E
:100500000E948E0BE5CF0E94920BE2CF0E94BA1A96
:100510000E94A5020E94CE1408950E94A9020E9482
:10052000BF1A089508950E949202089581E00895E7
:100530000E94960208950895CF93C82F0E949302B7
:100540008C2F0E949802CF91089580E00E949C0217
:1005500008950E94F8190E949C0208950E94F819BB
:1005600090914601981721F0809346010E949C02C9
:100570000895ABE0B0E0EFEBF2E00C944F224F8334
:10058000588769877A878B8761110E94CF0A1E82FC
:100590001D8285E0FE013796DE01119601900D92D5
:1005A0008A95E1F78C819D81892B61F449815A817B
:1005B0006B817C818D819E810E94F8092B96E2E0FF
:1005C0000C946B2289819A8189238F3F79F3CE0124
:1005D00001960E9405028111E9CFF0CFFC018081D4
:1005E00091810E94BE070895CF93C82F8823B9F048
:1005F0008CEF8C0F813AA8F46C2F809100019091C0
:1006000001010E94551A882329F08C2F0E948F0A1D
:100610000E94F00A8C2F0E94870A0E94F00ACF9154
:10062000089580E28C0F8830D0F7C77081E001C058
:10063000880FCA95EAF70E94B20AEFCF882339F1F2
:100640009CEF980F913A28F40E948F0A0E94F00ABA
:10065000089590E2980F983050F4877091E001C0AF
:10066000990F8A95EAF7892F0E94B80AEFCF9BE588
:10067000980F933028F490E080E00E94171A0895B4
:10068000885A873120F490E080E00E942D1A089566
:100690001F93CF93DF93182FEB010E94F402209752
:1006A00039F4812F0E941E03DF91CF911F9108958D
:1006B0008FE99FE00197F1F700C000002197EFCF8D
:1006C00070E060E0893311F460E570E00E94480357
:1006D0000895882321F00E94B20A0E94F00A08952A
:1006E000882321F00E94B80A0E94F00A0895B0E021
:1006F000A0E0EDE7F3E00C9448226C01D62FC72F61
:10070000FC011281F580F2949FE0F9220E94A80A70
:10071000E82E8823B9F0E12E1123A1F08C2F807FE1
:10072000803421F080E28D0F8830D0F080913D023E
:1007300082FF16C082E00E94530B0E94A80A91E03B
:10074000E82EE926BC2EB2948FE0B822FBE0FB1520
:1007500008F468C0EB2DF0E0E053FD4D0C94392215
:10076000E12CF0CF0C2F0F70C07F11F00295007FAD
:10077000112399F0002359F080E28D0F883010F09A
:10078000D11107C0802F0E94B20A0E94F00A8D2F5B
:1007900041C0802F0E94C20AF8CF8D2F0E941E03F5
:1007A000002309F43FC080E28D0F883010F0D11192
:1007B00004C0802F0E94B80A03C0802F0E94C80A7C
:1007C0000E94F00A2FC00C2F0F70C07FC03211F0B2
:1007D0000295007FDD2381F0D13009F463C011233D
:1007E00009F46DC0FF2009F463C0F601858180FF24
:1007F000CECF8F7085835CC080913D0282FD33C077
:10080000112359F0002329F0802F0E94B20A0E9480
:10081000F00A80E00E94F40205C080E00E941E03FE
:100820000111C7CFEB2DE850FF0B349720F40E9445
:10083000F8190E949C02EE2089F00E94A40A80FD13
:100840000DC0F60112820E949E0A0E946806C6012F
:100850000E947B050E949E0A0E948A06CDB7DEB7E1
:10086000E9E00C946422112389F0F11006C00E9483
:10087000D20A802B0E946903D5CF21E0F212F7CF74
:100880000E94D20A802B0E94D90ACCCFF11006C058
:100890000E94E60A802F0E947003C4CF31E0F31655
:1008A00009F2F6CF112331F085E08F1508F4BACFA5
:1008B000802FE0CF94E09F1508F4B4CFEBCFFF205A
:1008C00049F3D93349F4FFEF27EE33E0F1502040EC
:1008D0003040E1F700C000008D2F0E941E03A2CF20
:1008E0008C2F837009F041C011119CCF4D2F429580
:1008F00046954770440F440F0D2F0F7010E030E005
:1009000020E0042E04C0000F111F221F331F0A9481
:10091000D2F760E070E0CB01D4FF0FC06FE070E071
:1009200080E090E004C0660F771F881F991F4A95EA
:10093000D2F76095709580959095C695C695C370D1
:10094000602B712B822B932BC23049F058F4C130AD
:1009500019F00E94130666CF0E94000663CF0E9422
:10096000260660CF0E94FD055DCF8695112311F00C
:100970008C2F8170882309F455CF4D2F42954695D1
:100980004770440F440F0D2F0F7010E030E020E04F
:10099000042E04C0000F111F221F331F0A94D2F728
:1009A00060E070E0CB01D4FF0FC06FE070E080E04A
:1009B00090E004C0660F771F881F991F4A95D2F7F1
:1009C0006095709580959095C695C695C370602B7F
:1009D000712B822B932BC23049F058F4C13019F09F
:1009E0000E94E3061FCF0E94D0061CCF0E94F6068D
:1009F00019CF0E943F0616CFCF70112329F08C2FFC
:100A00000E9468068D2F36CF8D2F0E9470038C2F89
:100A10000E948A0607CFD23F51F160F4D03FB9F06F
:100A2000D13F81F0112309F449C0F110B0CE8C2FD1
:100A30008F7121C0D33F11F1D43FA1F780913D02C6
:100A400082FD26C08C2F8F71112311F314C0112346
:100A500049F084E08F1508F4E5CE8C2F8F710E9449
:100A6000AE06E0CE95E09F1508F4DCCEF6CF8C2FD5
:100A70008F711111CDCF0E946806D4CE112329F0B9
:100A80008C2F8F710E945206CDCE0E944C06CACE8A
:100A9000112349F0CF718C2F0E94680663E08C2FE0
:100AA0000E94350BBFCE81E00E94530BE1E0EF15B1
:100AB00008F0B8CE82E00E94530BB4CEF11001CF03
:100AC0008C2F8F71A5CF0F931F93CF93DF93EC01E2
:100AD000688179818A810E94C9078C010E94090777
:100AE0000E94FC05B801CE010E947703DF91CF91EF
:100AF0001F910F910895CF93DF93EC018B819C811F
:100B0000892B29F08881998189238F3F51F4DF91C6
:100B1000CF910895CE010E946305CE010E94070285
:100B2000F6CFCE010E9432028111F4CF0E94A80AB2
:100B3000882369F38A81882351F380913D0282FFE3
:100B4000E6CF82E00E94530BE2CF0E94CF0A0E94C0
:100B5000F00A08950E94970A0E94A50508950E9430
:100B6000BF0A0E94AA05089592959F70963091F051
:100B700058F4925F9F70923058F4803F19F030F42F
:100B8000883E30F481E008959A5FF4CF843FD1F33A
:100B900080E00895883EB0F3813FD1F7F3CFFC01A8
:100BA000808191810E94BE070E94B4050895A5E04E
:100BB000B0E0EDEDF5E00C944F222596E2E00C94C8
:100BC0006B22A6E0B0E0E7EEF5E00C944F2226960B
:100BD000E2E00C946B2208950E94EB0508950E94B8
:100BE000EC05609374017093750180937601909386
:100BF00077010E94A505089508950E94EF050895C4
:100C00000F931F930091740110917501209176014B
:100C100030917701602B712B822B932B0E94EF0573
:100C20001F910F9108950F931F93009174011091DC
:100C30007501209176013091770160237123822321
:100C400093230E94EF051F910F9108950F931F9317
:100C50000091740110917501209176013091770116
:100C600060277127822793270E94EF051F910F911C
:100C700008950E94EB0508950E94390608950E9488
:100C80003C066093700170937101809372019093A0
:100C900073010E94A505089560E070E0CB010E94F9
:100CA0003F0608950F931F9341E050E060E070E02D
:100CB0008A019B0104C0000F111F221F331F8A9558
:100CC000D2F7C901B8010E943F061F910F91089504
:100CD0000F931F9341E050E060E070E004C0440FC8
:100CE000551F661F771F8A95D2F7809170019091EA
:100CF0007101A0917201B09173018A019B01082BCF
:100D0000192B2A2B3B2BC901B8010E943F061F91CA
:100D10000F9108950F931F9341E050E060E070E061
:100D200004C0440F551F661F771F8A95D2F7CB0169
:100D3000BA01609570958095909500917001109121
:100D4000710120917201309173016023712382231C
:100D500093230E943F061F910F9108950F931F93B5
:100D600041E050E060E070E004C0440F551F661F92
:100D7000771F8A95D2F78091700190917101A091AF
:100D80007201B09173018A019B01082719272A2754
:100D90003B27C901B8010E943F061F910F9108959A
:100DA0000F931F93009170011091710120917201B6
:100DB00030917301602B712B822B932B0E943F0685
:100DC0001F910F9108950F931F930091700110913F
:100DD000710120917201309173016023712382238C
:100DE00093230E943F061F910F9108950F931F9325
:100DF0000091700110917101209172013091730185
:100E000060277127822793270E943F061F910F9129
:100E100008950895262F277091E001C0990F2A9513
:100E2000EAF723E0769567952A95E1F725E0269F76
:100E3000F001279FF00D1124E40FF51F50E040E072
:100E4000682F70E08191DF0111979B01042E02C091
:100E5000369527950A94E2F72170219528272923B2
:100E600028272C934F5F5F4F4530510559F7089560
:100E7000A82FA77023E0969587952A95E1F725E09E
:100E8000289FF001299FF00D1124E60FF71F50E075
:100E900040E080E0219130E00A2E02C0369527958F
:100EA0000A94E2F721703327042E01C0220F0A941E
:100EB000EAF7822B4F5F5F4F4530510559F7089590
:100EC000262F9A3070F4863060F4682F70E086E048
:100ED000989F600D711D112448E451E0822F0E94FB
:100EE0000A070895292F9A3068F4863058F490E064
:100EF00068E471E036E0239F800D911D11240E946B
:100F00003807089580E00895B0E0A0E0EAE8F7E04F
:100F10000C9448228C01C0907001D0907101E09037
:100F20007201F09073018091740190917501A0910C
:100F30007601B0917701C82AD92AEA2AFB2ACFE1A3
:100F4000D0E0BC2ED701C6010C2E04C0B695A795E3
:100F5000979587950A94D2F780FD09C0219788F765
:100F6000B12C8B2DCDB7DEB7E9E00C946422B8012B
:100F70008C2F0E94F80D019789F3F3CFCF93DF9365
:100F8000EC010E948407BE010E94F80DDF91CF9111
:100F900008951F93CF93DF93EB019091470199231D
:100FA00039F0CB010E94BE07DF91CF911F910895C8
:100FB000882369F0CB010E948407182F682FCE0187
:100FC0000E946007BE01812F0E94F80DEDCFCB017A
:100FD0000E947207182FF6CF1F93CF93DF93C09113
:100FE000780116E0809179018C1304C0DF91CF91D4
:100FF0001F910895D0E01C9FF0011D9FF00D11245A
:10100000E658FE4F408151816281738184819581D0
:101010000E94E1052196C770E5CF4091AA01509149
:10102000AB016091AC017091AD018091AE019091E6
:10103000AF010E94E10508951F93CF93DF93809144
:10104000AF01807F09F049C08091AC01882309F489
:1010500044C080917801C09179016091AA0170919A
:10106000AB01A091AD01B091AE01D62FD72316E010
:10107000C81799F190E0109711F0DF3F19F401962D
:101080008770F6CF189F9001199F300D1124F90138
:10109000E658FE4F41814713F2CF40814613EFCF10
:1010A00042814111ECCF438154814A1B5B0B483C88
:1010B000510528F78091AF018F7080618093AF0157
:1010C000F901E158FE4F80818F70806180838AEA48
:1010D00091E00E947B050E94EC07DF91CF911F9168
:1010E0000895A1E1B0E0E7E7F8E00C9447228C0115
:1010F00085E0F801DE011D9601900D928A95E1F7D9
:10110000F801E2808AEAC82E81E0D82E6091AD0114
:101110007091AE016115710509F44EC19091AA015B
:101120002091AB01892F82238F3F09F445C1408173
:101130005181A380B480F090AC01F501E61BF70B60
:10114000FF2009F4EAC08091AF01382F307FE83CDE
:10115000F10508F0A3C031116DC0FE2C251316C097
:10116000941314C0E11012C08F7080618093AF019E
:101170000E940D08C6010E947B058091AF01F80115
:1011800085838F2D6196EAE00C946322A114B1044B
:1011900029F0842F85238F3F09F027C180E0F82FA5
:1011A000F170DF2E80FF3CC08091780120917901A1
:1011B00036E0821315C04D875E878D859E850E941F
:1011C000BE07292F22952F702230F0F0243018F519
:1011D0009F70F1F0F8019581907FD1F4D12C1EC061
:1011E00090E0389FF001399FF00D1124E658FE4F32
:1011F0006181651306C06081641303C06281E612D9
:101200000FC001968770D5CF9F7011F0882331F3FE
:10121000805E883018F3C8010E947B05FD2CB1CF99
:10122000EE2009F4AECF8091AF0181608093AF01D1
:10123000F12CA7CF251306C0941304C0F801EE20AB
:1012400009F487C0C8010E94CF05882319F1EE2058
:1012500009F18091AF01803270F02091AA013091A4
:10126000AB0138872F831986BB86AA868C87CE016F
:1012700007960E947B0586E0F801AAEAB1E001909A
:101280000D928A95E1F70E941C080E940D08FF2428
:10129000F39477CFC8010E947B05F9CF311113C0B9
:1012A0007A2DB98AA88A6E2D89890E94D7058AEA83
:1012B00091E00E947B0586E0F60111928A95E9F79C
:1012C0000E940D08B5CF25130FC094130DC0E11077
:1012D0000BC0F8018583C8010E947B0586E0F601FA
:1012E00011928A95E9F74DCFC8010E94CF05882356
:1012F00089F2EE2079F28091AF01803208F4BBCF01
:101300002091AA013091AB013A8329831B82BD82CF
:10131000AC828E83CE010196ACCFE83CF10508F09B
:101320003EC0FE2CEE2009F4B5CF25132AC094133D
:1013300028C08091AF0180FD1BC0982F907FC1F025
:10134000F8018583903F31F0982F907F905F8F70E8
:10135000892B8583C8010E947B0586E0F801AAEAF3
:10136000B1E001900D928A95E1F70E940D0809CF36
:1013700086E0F801AAEAB1E001900D928A95E1F7C2
:1013800000CFC8010E94CF05811175CF8091AF01B8
:1013900081608093AF01C8010E947B05F2CE7A2D57
:1013A000B98AA88A6E2D89890E94D70586E0F60140
:1013B00011928A95E9F7D9CFEE2009F46BCFC801D5
:1013C0000E94CF05F82E882309F464CF86E0F80147
:1013D000AAEAB1E001900D928A95E1F78AEA91E0DC
:1013E0000E94EE020E941C08C0CF81E08E25D7CE5D
:1013F000ACE0B0E0EEEFF9E00C944E224F8358875A
:1014000069877A878B879C87CE0107960E9471082F
:10141000882369F08A859B85892B39F04F8158850F
:10142000842F85238F3F09F06BC016E05FC086E0F4
:10143000FE013796DE01119601900D928A95E1F733
:101440008A859B85892B89F388859F8189238F3F96
:1014500061F32091790130E0C901019687709927E5
:10146000409178014817190671F40E94AF05109257
:1014700079011092780186E0EAEAF1E0DF011D923D
:101480008A95E9F7D2CF96E0929FD001939FB00D55
:101490001124A658BE4FFE01319601900D929A95E7
:1014A000E1F7809379010E94EC07BFCF819FC001D3
:1014B000112486589E4F0E9471088823E9F0E0911C
:1014C00078011E9FF0011124E658FE4F40815181A2
:1014D00062817381848195810E94E1058091780108
:1014E00090E0019687709927809378018091780128
:1014F000909179018913DACF2C96E3E00C946A225B
:1015000069857A858B859C850E94E1058ECF682F41
:1015100080910001909101010E948B1A0895682F1B
:1015200080910001909101010E948E1A089580918E
:101530000001909101010E94911A08958091B801D3
:1015400085958595859508958091B8018770089552
:101550009091B801977081E009F480E0089580913E
:10156000C30108959091C301892B8093C30108950D
:1015700080959091C30198239093C3010895109290
:10158000C30108959091C201892B8093C2010895EF
:1015900080959091C20198239093C2010895109272
:1015A000C20108958091B901089508950E94D50A55
:1015B000089590913D0292FF08C09091B90198174B
:1015C00021F08093B9010E94D60A08958091B90153
:1015D000882329F01092B90180E00E94D60A08956C
:1015E000CF93DF93E0910001F09101018091C3015D
:1015F0008083E0910001F091010180819091C2010E
:10160000892B80839091B901992381F0E0910001A9
:10161000F09101018081892B80838091000190915C
:1016200001010E94431A81110E94E60AC091000143
:10163000D091010148E050E060EB71E0CE010E94E2
:101640007622892B59F088E0FE01A0EBB1E00190F1
:101650000D928A95E1F7CE010E940C1ADF91CF918D
:10166000089508950E94310B089590913D0292FFD4
:1016700011C098E0899F90011124622B6093B801FA
:101680000E9468068091B8018595859585950E9490
:10169000320B08950E94680608951092B80180E008
:1016A0000E94320B08959091B80180958923809310
:1016B000B801282F277091F4282F082E000C330B27
:1016C0009217130659F090913D0292FF07C085953D
:1016D000859585950E948A060E944D0B08959091EC
:1016E0003D0292FB222720F9281769F080FB92F92E
:1016F00090933D0280913C0290913D020E94B90B73
:1017000082E00E94530B089580913D0282FB88275E
:1017100080F991E089270E946F0B089581E00E9473
:101720006F0B089580E00E946F0B089590E080E0B9
:101730000E94942221E0883E9E4F09F020E0822FF3
:10174000089582E090E00E948C22089583E090E06A
:101750000E948C220895CF9384E090E00E948C2216
:10176000C82F82E290E00E948C22982F8C2FCF917C
:101770000895CF93C92F682F84E090E00E949A22A9
:101780006C2F82E290E00E949A22CF910895AB01E3
:10179000BC018FE090E00E94AC220895AB01BC0137
:1017A00083E190E00E94AC22089560E070E0CB01FC
:1017B0000E94CE0B089560E070E0CB010E94C70B41
:1017C0000E94D50B089568EE7EEF90E080E00E94C5
:1017D000B82260E082E090E00E949A2260E083E01C
:1017E00090E00E949A22109274011092750110925A
:1017F00076011092770160E084E090E00E949A22E6
:1018000064E082E290E00E949A2260E085E090E04D
:101810000E949A2260E086E090E00E949A226FEF98
:1018200087E090E00E949A2240E050E0BA0188E010
:1018300090E00E94AC2260E08DE090E00E949A224D
:1018400040E050E0BA0188E190E00E94AC2260E004
:1018500087E190E00E949A2240E050E0BA018CE1DA
:1018600090E00E94AC2270E060E080E290E00E9494
:10187000B82240E050E0BA0188E190E00E94AC223A
:101880000E94DB0B08950E94E30B0895682F8EE001
:1018900090E00E949A2208950E94491B6093D20111
:1018A0007093D3018093D4019093D5016093CE01BE
:1018B0007093CF018093D0019093D1010895089542
:1018C00008950E94600C089508950E94640C089584
:1018D00087E19FE00E94EE190E945F0C0E94610C5C
:1018E00008950E94E7100895089508950E94740CC9
:1018F0000E94750C08950E941A0F0E949B02089581
:101900000E94341B0E94D70E0E9402110E944B10AD
:101910000E947B0C0E94F81280E00E9453130E94E8
:101920000C110E94650C0895AAE0B0E0EAE9FCE021
:101930000C9445220E946E10982E81110E944C0C2E
:1019400084ECA82E81E0B82E10E000E0802E802FDD
:101950000E94470FE82EF501C1905F01C816B1F152
:101960008091D60181FD0E944D0FD12CFF24F3946C
:10197000CE248C2D8F2129F10E94710C882399F09F
:10198000DE828F82EF2081E009F480E088870E9468
:101990003D1B8160782F9A8789874E815F8168859A
:1019A0008A850E94B902F801EC53FE4F8081F82627
:1019B000F08281E0911001C080E02A96ECE00C9466
:1019C0006122D394FF0CF6E0DF12D3CF0F5F1F4FDD
:1019D0000A30110509F0BACF8FEF89838A831B8201
:1019E0000E943D1B8160782F9D838C8349815A81A1
:1019F0006B818D810E94B902DCCFCF930E94940C41
:101A0000C82F0E94E7100E94EE14C1110E94B21369
:101A10000E94AE02CF910895CF93DF930E94FD0DF7
:101A2000EC01811523E5920790F5811532E59307C6
:101A300008F096C081159042C8F4C11581E0D8071E
:101A400088F4C53AD10548F4C430D10558F4C13002
:101A5000D10541F0D0E0C0E005C0CE01805E910923
:101A60000897C0F7CE01DF91CF910895C11591E598
:101A7000D90708F070C0C11520E5D20708F04EC0A4
:101A8000C11530E4D30730F3DF70D06AEBCF811596
:101A900046E59407F0F4C11585E5D80708F075C050
:101AA000C11594E5D90708F06BC0CE018370992762
:101AB00021E030E002C0220F331F8A95E2F7C6957D
:101AC000C69590E2C99FE0011124C22BD32BDA689E
:101AD000C9CF81152AE5920778F4811539E5930776
:101AE00008F05EC0811548E5940708F4B3CFD82FFD
:101AF000CC27C06FD06AB6CF90568115904208F0BF
:101B0000A9CF8D2F8F710E94940E90E0982F882777
:101B100088279F719C012C2BE90140C0CE01E4E095
:101B200096958795EA95E1F783702C2F2695269553
:101B3000237040E2249F90011124382B8C2F837056
:101B4000C1E0D0E002C0CC0FDD1F8A95E2F7C22BC6
:101B5000D32BDC6887CFDC2FCC27C16FD06A82CF34
:101B60008370992721E030E002C0220F331F8A954D
:101B7000E2F7C695C69580E2C89FE0011124E7CF41
:101B8000DC2FCC27C46FD06A6DCF8C2F0E94940EAF
:101B9000C82FD0E0DC2FCC27CC27DF71D06262CFFA
:101BA0008F700E94940E34E0D695C7953A95E1F770
:101BB000CF709C2FEC01D06955CF972F7A30A8F4C5
:101BC000663098F470E026E0929F600D711D11243C
:101BD000FB019CE3899FE00DF11D1124EE0FFF1F17
:101BE000E455FF4F85919491089580E090E0089529
:101BF0000E94DD0D0E940C0D089582389105B1F10F
:101C0000B0F48133910509F475C048F48932910527
:101C100009F469C08A32910509F473C008958533C7
:101C2000910509F459C08933910501F10895833E66
:101C30009105A9F138F4803E9105F9F0823E9105B5
:101C400049F10895863E9105A9F1873E9105C9F1B4
:101C5000843E910519F520913D0221FF1FC080911E
:101C60003C0284FD14C087EE90E0089520913C0270
:101C70002370A1F080EE90E0089520913C0220FDB9
:101C800047C030913D0230FF09C024FF44C090E0BE
:101C900080E004C020913C0222FDF7CF08952091FE
:101CA0003C0222FD3BC030913D0230FDE3CF24FFDA
:101CB000F5CFEDCF20913C0223FFF0CF24FDE7CFFD
:101CC000D2CF20913C0223FD2CC030913D0231FF48
:101CD000EECF84EE90E0089520913C0225FFDECF08
:101CE00089E290E0089520913C0225FFD7CF85E35B
:101CF00090E0089520913C0226FFD0CF8AE290E048
:101D0000089520913C0226FFC9CF81E390E0089519
:101D100089E390E0089583EE90E0089582EE90E0EC
:101D2000089586EE90E0089590913C0292FF06C0DF
:101D3000282F28712830F9F4877F846093FF06C02C
:101D4000282F28712831F1F4877E846120913D028B
:101D500020FF06C0382F38713830D9F4877F816072
:101D600021FF06C0282F28712831D1F4877E816198
:101D700094FD877E0895282F24712430F9F68B7FF7
:101D80008860DCCF282F2471243101F78B7E886195
:101D9000DDCF382F3171313019F78E7F8860E0CF79
:101DA000282F2171213121F78E7E8861E1CF109299
:101DB00038021092390210923A0210923B020895B2
:101DC000CF92DF92EF92FF926B017C010E94E710AD
:101DD00081110EC00E94491BC61AD70AE80AF90AE7
:101DE000C0923802D0923902E0923A02F0923B025D
:101DF000FF90EF90DF90CF9008950F931F930E9474
:101E0000E710882329F00E94491B1F910F91089524
:101E10000E94491B009138021091390220913A0228
:101E200030913B02600F711F821F931FEECF80E045
:101E3000089508950E94960B811102C00E94430CE0
:101E40000E94A10B8093D6010E94AB0B90933D02A0
:101E500080933C020E94190F0E94A60B682F70E02D
:101E600090E080E00E94FD05609170017091710129
:101E700080917201909173010E943C06089508952B
:101E80000E943F0F089508950E94430F0895E82F80
:101E9000F0E0E75BFD4F80810895089580EA8A9520
:101EA000F1F7089500C008950E944E0F0895089517
:101EB0000E94570F0895A5E0B0E0E1E6FFE00C9422
:101EC0004B220E94E710F82E60915302882309F4F8
:101ED00040C085E0E82E8E010F5F1F4FF8018E2D68
:101EE00011928A95E9F7862F90E0B801875B9D4FA4
:101EF0000E941A118823B9F080913E0290E045E0DB
:101F000050E0B801875B9D4F0E94762221E020932C
:101F1000D701892B91F4F12C0E9416028F2D259662
:101F2000E6E00C9467228091D7018823A1F3F801A1
:101F30001192EA94E9F71092D701A0913E02B0E025
:101F4000A75BBD4F85E0F80101900D928A95E1F7FE
:101F5000E3CF70E0675B7D4F80913E0290E0875B4E
:101F60009D4F0E94A1110E94580FD8CFF894E82FDE
:101F7000E295EF70F0E031A1282F2F7081E090E022
:101F800001C0880F2A95EAF7982F9095932391A383
:101F900092A1892B82A3789408950F931F93CF93D6
:101FA000DF93C5E3D1E089918F3F11F00E94B60F16
:101FB00081E0CA33D807B9F7CFE2D1E005E311E0F9
:101FC00089918F3F11F00E94B60F0C171D07C1F7C2
:101FD000DF91CF911F910F910895B0E0A0E0E3EF62
:101FE000FFE00C944922EC01D62E062F10E0C80128
:101FF0008B5C9E4F7C01FC0180818F3F09F444C0C3
:10200000F894E82FE295EF70F0E091A18F7021E055
:1020100030E001C0220F8A95EAF7892F822B81A335
:1020200082A12095282322A378940E94520FEFE2E8
:10203000F1E031E0C12C21912F3F59F1A22FA2955F
:10204000AF70B0E090968C9190E02F7002C09595A3
:1020500087952A95E2F780FD1CC0832FC82A330F8D
:1020600081E0E533F80739F7F70180818F3F11F000
:102070000E94B60F61E0C11001C060E08D2D0E948A
:10208000540FC00FD11FC882CDB7DEB7E8E00C9463
:10209000652280E0E3CF809102018091020195E00A
:1020A000811190E09093530285E0891B80933E025A
:1020B0000E94CD0F8AE0E9E4F2E0DF01982F1D9243
:1020C0009A95E9F7EFE3F2E0DF011D928A95E9F7CF
:1020D00085E00E94B1100E9413020895AAE0B0E0CA
:1020E000E4E7F0E10C944B228E010F5F1F4F8AE072
:1020F000F80111928A95E9F7F12C6F2DC8010E9421
:10210000ED0FF394F5E0FF12F8CF4AE050E0B8018C
:102110008FE392E00E9476227C0121E0892B09F472
:1021200020E0E114F10441F08AE0F801AFE3B2E00D
:1021300001900D928A95E1F76091530270E0675B20
:102140007D4F45E08FE392E00E94B21081E090E085
:10215000E114F10411F40E945B0F2A96E6E00C945E
:1021600067220895FF920F931F93CF93DF93F82E6A
:10217000092F162FD72FC42F222349F081E08093F7
:10218000DA010E943D1B9093D9018093D801809180
:10219000DA018823A1F08091D8019091D9010E94A1
:1021A000551B059760F0EF2DF02FA12FBD2FCE0FFF
:1021B000DF2FD11DEC17FD0739F41092DA01CDB7EE
:1021C000DEB7E5E00C94682281918D93F3CF809186
:1021D000DD01811107C00E941822882351F081E09F
:1021E0008093DD0181E09091DD01913009F080E084
:1021F000089582E08093DD010E941322F3CF0E94B4
:10220000E71008950E94FF10809302010E94E710DA
:1022100081110E94501108950E94E710811102C09F
:102220000E945311089581E09091DE019A3008F0E8
:1022300080E008950F931F93CF93DF93EC018B0100
:102240008091DE018A30B8F4B801CE010E949E115F
:10225000C82F811122C08091DE018F3FB9F40E9406
:102260003D1B9093DC018093DB018C2FDF91CF919C
:102270001F910F9108958091DB019091DC010E94E4
:10228000551B843F914000F7C0E0EFCF8F5F8093F4
:10229000DE018A3020F7C1E0E8CF1092DE01E5CF01
:1022A0000E948C1808950E948F180895B0E0A0E055
:1022B000ECE5F1E10C944A227901C82F880FDD0B7F
:1022C00041155105A9F0FE0193E0EE0FFF1F9A950D
:1022D000E1F7ED5FFE4F8181928181529E4F208117
:1022E00030E04217530708F49A01A9010E948322A3
:1022F000CE010E947819D82E8823D1F0011511053E
:10230000B9F083E0CC0FDD1F8A95E1F7FE01ED5FA8
:10231000FE4F438150E00417150708F4A801CD5F74
:10232000DE4F6C817D8161527E4FC7010E94832206
:102330008D2DCDB7DEB7E7E00C9466220E94901297
:1023400008950E94A7120895A4E0B0E0EAEAF1E13E
:102350000C944D226091F6017091F7018091F80183
:102360009091F9010E94641B11E0643671058105AA
:10237000910518F10E94FD0E6E5F7F4F8F4F9F4FAA
:1023800069837A838B839C8310E000E030E020E057
:1023900044E050E0BE016F5F7F4F82E00E94561123
:1023A000182F882351F00E94491B6093F601709307
:1023B000F7018093F8019093F901812F2496E4E0CE
:1023C0000C946922B0E0A0E0E8EEF1E10C94472221
:1023D0007C015B016A010E94131101E010E0882377
:1023E00011F00AE010E0C1E0D0E0B501C701F6014C
:1023F0000995811104C021960C171D072CF4CDB747
:10240000DEB7EAE00C946322CC9F9001CD9F300DA3
:10241000300D112490E080E045E34A95F1F700008B
:10242000019682179307C1F7E0CFA6E0B0E0EBE199
:10243000F2E10C9447227B01C0903A01D0903B011D
:1024400001E010E09E012A5F3F4F50E040E070E065
:1024500060E080E00E945611182F882309F448C0DC
:1024600056018FEFA81AB80A6091F2017091F3013A
:102470008091F4019091F5010E94641B643671050E
:102480008105910568F105E010E09E012F5F3F4F47
:1024900050E040E070E060E081E00E945611D82EEC
:1024A00065E070E0C5010E94F91211E09E81981369
:1024B00010E01D2141F10E94491B6093F2017093CD
:1024C000F3018093F4019093F50185E0FE013196CC
:1024D000ADEEB1E001900D928A95E1F711E013C0E5
:1024E00065E070E0C5010E94F9129E818913CBCF8F
:1024F00085E0F6013196DE01119601900D928A95E4
:10250000E1F71111E2CF85E0EDEEF1E0D7010190A6
:102510000D928A95E1F7812F2696EAE00C946322CA
:102520000F931F93CF93DF93EC018B0145E152E1B1
:102530000E94E211882331F044EA51E1B801CE0152
:102540000E94E211DF91CF911F910F9108950F9397
:102550001F93CF93DF93C0913A01D0913B01CE01FD
:10256000019625E0FB01DC0101900D922A95E1F72F
:1025700065E070E00E94F91288836E817F81888512
:1025800099850091E9011091EA012091EB013091C8
:10259000EC01601771078207930751F06093E9011E
:1025A0007093EA018093EB019093EC010E94E00E9E
:1025B000DF91CF911F910F9108950E94001D0E94FD
:1025C000800C0E940D1D08950E94121D0E94FD0C9A
:1025D0000E942C1D08950E94D61A0E94E61C0E949B
:1025E000680C0E94DD120E94E4120E94760CFBCF60
:1025F0000895FC01680F791F8FEF91E3E617F70745
:1026000009F408952191822728E030E087FF06C071
:10261000880F892721503109C9F7F0CF880FFACFE9
:10262000B0E0A0E0E6E1F3E10C9449226C017B010B
:1026300064E670E088E70E944917EC0197FD12C03C
:1026400010E000E0F601E00FF11F849164E670E015
:102650000E94B717EC01892B29F40F5F1F4F0E154D
:102660001F0581F70E942E18CE01CDB7DEB7E8E036
:102670000C94652208950E943A130895E4E5F2E06F
:1026800080E092E0DF019C011D9221503040E1F793
:10269000F0935B04E0935A048FEF9FEF9093200236
:1026A00080931F0208950E943A130E943B13809367
:1026B0001B0280FD0FC080E880931A020E9443171E
:1026C0006DE070E083EA92E00E941013892B21F004
:1026D00080E0089580E2F0CF80911B0263E070E01B
:1026E00081FD26C080EA92E00E941013892B81F7B9
:1026F0006DE070E080E992E00E941013892B41F7B1
:102700000E94491B605A75418F4F9F4F609356043A
:102710007093570480935804909359040E943E1379
:1027200081E080931E0280931D0210921C02089586
:102730008DE992E0D9CF20911A0236E0839FC00143
:102740001124629F800D911D1124811522E09207B2
:1027500014F090E080E08C5A9D4F90935B0480933E
:102760005A04089580911E02811103C080911D02B8
:1027700008950E94491B605A75418F4F9F4F609387
:102780005604709357048093580490935904809191
:102790001D028111EBCF62E070E08EE892E00E94B2
:1027A0001013892B19F781E080931D02DFCF2F9240
:1027B0003F925F926F927F928F929F92AF92BF9261
:1027C000CF92DF92EF92FF920F931F93CF93DF93FD
:1027D00080911E02882369F020911F02309120020F
:1027E0002115310531F080911C0261E070E08823F1
:1027F00099F0DF91CF911F910F91FF90EF90DF90B3
:10280000CF90BF90AF909F908F907F906F905F9090
:102810003F902F9008958F5F082F10E01B01082E26
:1028200002C0220C331C0A94E2F7A9014221532171
:10283000452B89F390911B0290FD44C08295880F2F
:10284000807680931D0198013695279536952795BA
:1028500020932001815E80931E011092210124E6C5
:1028600030E047E050E06BE171E088E70E94E61756
:10287000892B09F0BECFA80125E0440F551F2A95EA
:10288000E1F780911B0280FD2BC04C5A5D4F04E69E
:1028900010E020E230E060E488E70E940718892B0E
:1028A00009F0A7CF0E94B213E101C095D0958091A5
:1028B0001F0290912002C823D923D0932002C093F5
:1028C0001F0297CF880F880F880F80931D011092E9
:1028D0002001895F80931E0183E080932101BFCF97
:1028E000EAEFF1E080E2DF011D928A95E9F7A0E4CA
:1028F000B1E00CE311E084E4C82E81E0D82E97E02B
:10290000592E772473948D91E80129918E01240F1B
:10291000352F311D2C5A3D4FE82FF0E0E650FE4F89
:1029200090E080E0652C681A872C082E01C0880C86
:102930000A94EAF77901A12CE701B9907E01B82049
:10294000662D6A196770962E062E000C770BDB2D0C
:1029500001C0DD0F9A94EAF771956195710967706E
:10296000772701C0B6946A95EAF7BD2A6081962E52
:102970009B289082A39468E0A612DECF0196319640
:102980008830910579F6CA16DB0609F0BCCF04E65B
:1029900010E020E230E04AEF51E07DCF80911D024F
:1029A00090911E02911103C091E089270895882318
:1029B00069F062E070E08CE892E00E941013892BCD
:1029C00019F080911D02089510921D0280911D0240
:1029D000EBCF81E008950E94E91408950F931F93AF
:1029E00080911E02882379F18091540490915504BE
:1029F0000E94551BC29760F00E943D1B90935504A6
:102A00008093540460E080E00E949B130E94EB14CA
:102A10000E94D71380911D028823A9F00E94491BB0
:102A20000091560410915704209158043091590494
:102A3000601B710B820B930B6F3F7F4F8F4F9F4734
:102A400010F40E94CE141F910F910895CF93DF933D
:102A5000EC01FB018281882309F433C1C430FDE518
:102A6000DF07C0F5CB3F9CE5D90730F49E0122502B
:102A70003C4524313105B0F50E94AB0B90933D02EB
:102A800080933C02C1318CE5D80709F4EEC008F010
:102A900069C0C930ECE5DE0709F4D5C0C8F5C5301A
:102AA0008CE5D80709F4C7C000F5C330ECE5DE07B4
:102AB00009F4B9C008F0BBC0C230DC4509F4ADC0B0
:102AC00080913C0290913D020E94B90B0E94AF059B
:102AD00080E008C0C236EDE5DE0771F2C63AFDE5DA
:102AE000DF0751F2DF91CF91089580913C0280621F
:102AF000C7309CE5D90709F493C080913C028061FE
:102B0000C830DC4508F48CC080913C02806488C0E9
:102B100080913C028B7FCD30FCE5DF0709F480C05B
:102B200098F480913C028E7FCB309CE5D90709F464
:102B300077C080913C028C60CC30DC4508F470C0DA
:102B400080913C028D7F6CC080913C028F7ECF30A3
:102B5000FCE5DF0709F464C008F47BC080913C0207
:102B60008F7D5EC0CE3F9CE5D90709F47AC050F551
:102B7000C531FCE5DF0709F486C098F480913C027A
:102B8000837FC3319CE5D90709F44AC008F471C0BA
:102B90000E94AF0590913C02892F97FB87F98058DE
:102BA0003FC0CC3FFCE5DF0709F449C008F055C041
:102BB00080913D028160CB3FDC4509F081CF80935D
:102BC0003D027ECFC230EDE5DE0709F468C0A8F40F
:102BD000C1158DE5D80709F452C080913D0283608C
:102BE000C130DD4560F380913D02982F9095917042
:102BF0008E7F892B90FB81F9E2CFC236EDE5DE07AF
:102C000009F451C0C63AFDE5DF0709F453C0C330EB
:102C1000DD4509F055CF80E043C080913C028160E2
:102C200080933C024DCF80913C028260F9CF80912D
:102C30003C028460F5CF80913C028860F1CF8091A6
:102C40003D028260BCCF0E94AF0580913C0280684B
:102C5000E7CF80913C02877FE3CF80913D028E7F5A
:102C6000AECF80913D028D7FAACF80913C028F7BB9
:102C7000D7CF0E94AF0580913C028F77D1CF809152
:102C80003D028C7F9CCF80913C0282FB992790F97A
:102C900021E0922790FB82F990FB83F9C1CF81E07C
:102CA0000E94460C0DCF90913C02892F8F7E94FF9D
:102CB0008061B6CF90913C02892F8E7F90FF81601A
:102CC000AFCF81E00FCFCF93DF93EB0186319C45EF
:102CD00011F50E94AF0A9A81992399F08A7A91E0BE
:102CE00009F490E090932102811109C089E20E94C9
:102CF000870A0E94F00A80E0DF91CF91089585E372
:102D0000F6CF80912102811104C089E20E948F0ACE
:102D1000F0CF85E3FBCF81E0EFCF0F931F93CF93ED
:102D2000DF93C42FD22FFC0182818823C9F0409306
:102D300024020E943D1B909323028093220280E292
:102D40008C0F883040F4C77081E001C0880FCA95AD
:102D5000EAF70E946903DF91CF911F910F910895C7
:102D600010912402141332C0809122029091230208
:102D70000E94551B883C910548F5C0E2CD0F1D17F8
:102D8000B9F080E2810F883040F4177081E001C013
:102D9000880F1A95EAF70E947003C83048F481E062
:102DA0009D2F977001C0880F9A95EAF70E946903DA
:102DB000802F0E946003C83070F6D77081E001C098
:102DC000880FDA95EAF70E947003C5CF80E28C0F76
:102DD000883008F6C77081E001C0880FCA95EAF70D
:102DE000F2CF0F939C01CB01243F4CE5340759F1FE
:102DF000A8F4293DFCE53F0701F12A3D4CE53407E5
:102E0000D1F1283D3C4591F406E221EE41EE68ED1A
:102E10007CE50E948D1680E00F910895263FFCE529
:102E20003F07E9F0B0F0273F3C45F9F0FC01828113
:102E3000882339F110922402EFCF07E225EE45EE08
:102E400069ED7CE5E6CF06E221EE40EE64EF7CE53D
:102E5000E0CF07E225EE44EE65EF7CE5DACF06E24F
:102E600021EE42EE66EF7CE5D4CF07E225EE46EE9A
:102E700067EF7CE5CECF08E221E045EE6AED7CE528
:102E8000C8CF81E0C9CF1092B9008CE08093B80020
:102E90000895B0E0A0E0EFE4F7E10C944622B82EEC
:102EA000EB010E943D1B6C01EE24E394F12CC43134
:102EB000D10560F025E0E22EF12CCF3FDC0731F0A8
:102EC000CE0164E170E00E9425227B0184EAA82EF5
:102ED00094E8992E1092BC00A092BC000E943D1B69
:102EE0008C018091BC0087FF0DC08091B900887F64
:102EF000883001F18091B900887F8031D9F00FEFDF
:102F00001FEF09C00E943D1B801B910B8E159F0572
:102F100040F30EEF1FEFCF3FDC07E1F2C6010E9446
:102F2000551B8C179D07B0F2C801CDB7DEB7EBE09B
:102F30000C946222B092BB009092BC000E943D1B98
:102F40008C018091BC0087FF0AC08091B900887F06
:102F5000883111F0803499F610E000E0E5CF0E944E
:102F60003D1B801B910B8E159F0558F3D2CF0F93FD
:102F70001F93CF93DF93EB018093BB0084E8809392
:102F8000BC000E943D1B8C018091BC0087FF11C0DA
:102F90002091B900287F81E090E0283211F490E080
:102FA00080E0919581959109DF91CF911F910F91CB
:102FB0000895CF3FDC0741F30E943D1B801B910B1E
:102FC0008C179D0708F38EEF9FEFEECFB0E0A0E0E7
:102FD000ECEEF7E10C9449226B018A017901B90109
:102FE0000E944917E6010C0D1D1DC017D10711F0F5
:102FF00097FF08C024E92093BC00CDB7DEB7E8E016
:103000000C946522B70189910E94B717EECFB0E00A
:10301000A0E0EDE0F8E10C944922C62F6A017901A5
:10302000B8010E94491797FD0CC0B8018C2F0E946F
:10303000B717E601EC0CFD1CCE15DF0511F097FF6C
:1030400008C024E92093BC00CDB7DEB7E8E00C94BB
:103050006522B80189910E94B717EECF84E9809369
:10306000BC0008958EE14A9B02C08150E1F74A9B63
:10307000FECF08955A9880E28A95F1F75A9A0895FA
:10308000FC013BE03A95F1F798E020E080E031E088
:1030900040E14A95F1F7880F4A9B02C081602327DF
:1030A00042E04A95F1F7000040E14A95F1F791506E
:1030B00079F790E19A95F1F799B132E03A95F1F705
:1030C000000040E14A95F1F792FB992790F9922789
:1030D0002081920F90830895A1E0B0E0E2E7F8E14B
:1030E0000C944B2219828C017C01E60EF11C0E150A
:1030F0001F0541F481E09981911180E02196E6E07D
:103100000C9467220E943218CE0101960E9440184A
:10311000F80181938F01EBCF529A5A9A08955298F1
:103120005A9AEA9AE9E6F0E080818F7C80830895DC
:103130006150770B91E001C0990F6A95EAF720E0A2
:1031400031E0911108C0222391F05A9A80E28A95C9
:10315000F1F75A980895492F482339F05A9A2327AE
:1031600040E24A95F1F79695ECCF5A98F9CF5A98E4
:10317000EDCFFF920F931F93CF93DF93EC018C0160
:10318000060F111DC017D10729F4CDB7DEB7E5E052
:103190000C946822F9900E943A1868E08F2D0E94E2
:1031A0009818F0CF1F920F920FB60F9211240F9321
:1031B0001F932F933F934F935F936F937F938F93BF
:1031C0009F93AF93BF93EF93FF93CF93DF930F92B0
:1031D000CDB7DEB719820E943218CE0101960E9447
:1031E0004018082F069506950695282F22952570DC
:1031F000902F9570290F922F937026952695920FF8
:10320000982797708981982B09F05CC0043008F0EA
:1032100059C080E18A95F1F75A9A529A82E08A95CC
:10322000F1F700C05A9888E0089F80011124D80166
:10323000AD5FBE4F1696ED91FC9117973097A9F0B0
:1032400060913A0170913B0114962D913C91159734
:10325000260F371F11968D919C911297680F791F39
:1032600013964C9113978C910995F801ED5FFE4FE1
:103270006381662351F020913A0130913B018481B2
:103280009581820F931F0E94B9180E943A1880E11D
:103290008A95F1F75A9852985A9A80E18A95F1F7EF
:1032A000F801ED5FFE4F6081662351F020913A01F5
:1032B00030913B0181819281820F931F0E946C1893
:1032C0000E9432180F90DF91CF91FF91EF91BF9143
:1032D000AF919F918F917F916F915F914F913F91AE
:1032E0002F911F910F910F900FBE0F901F90189567
:1032F0000F931F93CF93DF93EC0104970CF04CC016
:10330000F894529A5A9885E08A95F1F700009C2F1C
:10331000969595708C2F8570980F892F8370969550
:10332000969523E0CC0FDD1F2A95E1F7980F8E01CB
:10333000092B0E943A1800C068E0802F0E9498185C
:1033400080E18A95F1F752985A9A4A9B1EC087E00D
:1033500090E04A991CC0FE01ED5FFE4F6381662339
:10336000F9F020913A0130913B0184819581820FDF
:10337000931F0E946C18811113C0529A5A9A789424
:10338000DF91CF911F910F91089500C0DECF01977B
:1033900029F4529A5A9A789480E0F2CF00C0D9CF9B
:1033A0000E94321880E28A95F1F75A98529A80E189
:1033B0008A95F1F7CD5FDE4F6881662351F0209149
:1033C0003A0130913B0189819A81820F931F0E94BB
:1033D000B9180E943A18789481E0D2CF90934501B1
:1033E00080934401089590932B0280932A020895BC
:1033F0000E94E710811103C0809125020895E09199
:103400002A02F0912B02309729F00190F081E02DF3
:103410000995089580E00895E0912A02F0912B0229
:10342000309721F00280F381E02D099508952091D5
:103430002802309129022817390771F09093290248
:1034400080932802E0912A02F0912B02309721F01C
:103450000680F781E02D099508952091260230918C
:1034600027022817390771F09093270280932602CC
:10347000E0912A02F0912B02309721F00084F1852F
:10348000E02D099508959C012E5F3F4FAC01485FE8
:103490005F4F80E02417350709F40895F9019191F1
:1034A0009F019923B9F38F5FF5CF662349F0FC01A3
:1034B000329608962191261729F0E817F907D1F7D7
:1034C00080E0089581E008959C01FC0132969FEF11
:1034D00080E04191461751F09F3F19F4411101C01E
:1034E000982F8F5F8630A9F79F3F09F40895290F21
:1034F000311D97FD3A95F90162830895FC013296DA
:1035000008962191261303C0DF0111971C92E8173A
:10351000F907B9F708950E94641A08950E947E1A67
:103520000895029626E0FC0111922A95E9F7089584
:1035300008950E94981A0895811106C081E0809331
:103540002C020E94991A089582E0F9CF83E08093BB
:103550002C020E94991A08950E949C1A089581E0F5
:1035600080932C020E94991A08950E94AF1A089520
:10357000089508950E94B91A0895089508950E9423
:10358000B81A0895CF930E94BD1A0E946E100E942F
:10359000BE1AC0E08C2F0E94470F811105C0CF5F7B
:1035A000CA30C1F7CF91089581E0FCCF85B780681C
:1035B00085BF85B7806885BF08951F921FB61F928B
:1035C00011248F939F93AF93BF9380912D0281110C
:1035D00013C080915C0490915D04A0915E04B09151
:1035E0005F044196A11DB11D80935C0490935D041E
:1035F000A0935E04B0935F04BF91AF919F918F91B0
:103600001F901FBE1F90189580916404843031F183
:103610000E94860210922D0288E190E020E40FB60D
:10362000F894A895809360000FBE2093600083B744
:10363000817F846083BF83B7816083BF78948895DE
:1036400083B78E7F83BF0FB6F894A89580916000F2
:10365000886180936000109260000FBE08950E9400
:10366000AF050E948D02089582E084BD93E095BD70
:103670009AEF97BD80936E0008952FB7F8948091CC
:103680005C0490915D04A0915E04B0915F042FBF33
:1036900008952FB7F89460915C0470915D04809157
:1036A0005E0490915F042FBF08959C014FB7F8947A
:1036B00080915C0490915D04A0915E04B0915F04E0
:1036C0004FBF821B930B0895CF92DF92EF92FF9230
:1036D0002FB7F894C0905C04D0905D04E0905E0435
:1036E000F0905F042FBFA7019601261B370B480BF4
:1036F000590BCA01B901FF90EF90DF90CF90089568
:1037000078941F921FB61F9211248F939F93AF93AB
:10371000BF9380915C0490915D04A0915E04B09190
:103720005F040196A11DB11D80935C0490935D041C
:10373000A0935E04B0935F04BF91AF919F918F916E
:103740001F901FBE1F90189587E797E79093010879
:103750008093000888E19AE00FB6F894A8958093CA
:1037600060000FBE90936000FFCF88E19AE00FB633
:10377000F894A895809360000FBE90936000FFCFEF
:1037800080913602089508950895CF93DF93EC0158
:1037900081E08093E9008FEF9091E800815095FDE2
:1037A00006C095ED9A95F1F700008111F5CF809153
:1037B000E80085FF14C050E040E068E070E0CE0112
:1037C0000E948C1D8091E8008E778093E80088E04D
:1037D000FE01AEE2B2E001900D928A95E1F7DF9131
:1037E000CF9108950895089580916304811109C0CF
:1037F0000E941C1F0E94791F8091E20084608093C8
:10380000E20008951092630408950E94AF1A08958B
:103810006091600481E0611101C080E00E94A61AFD
:1038200008959091640481E0943009F080E0609103
:1038300060040E94AC1A089542E061EC81E00E94AD
:10384000981E9091640481E0943009F080E06091CA
:1038500060040E949C1A089580916604833009F4E4
:1038600061C030F48130D1F1823009F49EC00895F6
:103870008A3009F48AC08B3009F46FC0893009F0AE
:1038800050C080916504813209F04BC08091690479
:1038900090916A04892B09F044C08091E800877FE9
:1038A0008093E8008091E80082FF37C09091F30098
:1038B0008091F200029731F48091F100813011F093
:1038C000863021F48091F100809336028091E800E7
:1038D0008B778093E8000E94CC1E23C08091650402
:1038E000813AF9F48091E800877F8093E800809125
:1038F000690490916A04892B61F468E08EE292E099
:1039000070E00E94DB1D8091E8008B778093E800D7
:10391000089560E090E080E0F3CF8091640481112D
:10392000C1CF089580916504813AD9F780916904E7
:1039300090916A04892BA9F78091E800877F809392
:10394000E8008091E80080FFFCCF80912E018093F9
:10395000F1008091E8008E77BCCF809165048132C0
:1039600001F78091690490916A04892BD1F68091C6
:10397000E800877F8093E8000E94CC1E8091670456
:1039800080932E010E94AF050895809165048132D5
:1039900041F68091E800877F8093E8000E94CC1E6A
:1039A0008091680480933702089580916504813A7C
:1039B00009F0B7CF8091E800877F8093E80080917D
:1039C000E80080FFFCCF80913702C1CF84B7877FAA
:1039D00084BF0FB6F894A8958091600088618093A9
:1039E0006000109260000FBE80E890E00FB6F8947F
:1039F00080936100909361000FBE0E94B51A0895F4
:103A00000E941C1F0E94791FE2EEF0E0808184601A
:103A1000808378940E94F821089582E291E00E94C8
:103A2000F319089580916404853031F48091640421
:103A3000853019F00E942F1B08950E94041B80916D
:103A40006204882399F30E94C21A882379F30E94A2
:103A5000761D0E94AF05EACF08950E94301D08959B
:103A6000292F332723303105C9F058F4213031058F
:103A700099F122303105A9F190E080E030E020E0BA
:103A80001DC02132310509F122323105A9F780E448
:103A900090E02AE033E0672B79F710C09927813056
:103AA000910581F0009729F0029731F7E0EBF2E001
:103AB00002C0E2EDF2E0849190E09F01FA013183CF
:103AC00020830895E0ECF2E0F6CF89E090E028EE64
:103AD00032E0672B89F6F2CF82E190E028EF32E006
:103AE000EDCF82E290E026ED32E0E8CF80E189BDC3
:103AF00082E189BD09B400FEFDCF8091D8008F7DA1
:103B00008093D8008091E00082608093E0008091F3
:103B1000E00081FDFCCF0895AF92BF92CF92DF927B
:103B2000FF920F931F93CF93DF936C01EB018A01F8
:103B30000E94EB1EF82E811123C00115110539F0EA
:103B4000F80180819181C81BD90BC80ED91EB12CF8
:103B5000A12C2097A9F08091E80085FD22C08091DA
:103B6000E8008E778093E80001151105A1F0F801B7
:103B700080819181A80EB91EB182A08285E0F82EC5
:103B80008F2DDF91CF911F910F91FF90DF90CF90FC
:103B9000BF90AF9008950E94EB1E8823D1F2F82EBB
:103BA000EFCFF60181916F018093F1002197FFEF34
:103BB000AF1ABF0ACECFFC0180916B0490916C04C8
:103BC00086179707A0F06115710529F49091E80018
:103BD0009E779093E80090E06115710551F4911182
:103BE00008C08091E80082FF34C080E00895BC01E5
:103BF000F2CF809164048823C1F18530C1F18091B6
:103C0000E80083FD30C08091E80082FDEACF80911A
:103C1000E80080FFE1CF8091F3002091F200382F7F
:103C20006115710519F02830310558F091E0283000
:103C3000310509F090E02091E8002E772093E8000C
:103C4000CBCF81918093F100615071092F5F3F4F7D
:103C5000E7CF80916404882341F0853041F0809162
:103C6000E80083FFBECF81E0089582E0089583E0FD
:103C70000895FC0180916B0490916C04861797075E
:103C8000A0F06115710529F48091E8008E7780938A
:103C9000E80090E06115710551F4911108C0809120
:103CA000E80082FF35C080E00895BC01F2CF80912A
:103CB00064048823C9F18530C9F18091E80083FD4F
:103CC00031C08091E80082FDEACF8091E80080FF5A
:103CD000E1CF8091F3002091F200382F611571053A
:103CE00019F02830310558F091E02830310509F0FD
:103CF00090E08091E8008E778093E800CBCF8491AC
:103D00008093F1003196615071092F5F3F4FE6CFEC
:103D100080916404882341F0853041F08091E8006F
:103D200083FFBDCF81E0089582E0089583E0089588
:103D3000982F973028F08F708093E90081E00895E4
:103D40009093E900242F762F50E0981731F070916E
:103D5000EC002091ED005091F00021FD02C09F5F2A
:103D6000E8CF3091EB003E7F3093EB003091ED00D7
:103D70003D7F3093ED003091EB0031603093EB00EC
:103D80007093EC002093ED005093F0002091EE0032
:103D900027FDE5CF80E008958091650487FF13C07B
:103DA0008091E80082FF06C08091E8008B778093C5
:103DB000E80004C0809164048111F2CF08958091DD
:103DC00064048823D9F38091E80080FFF8CF8091C4
:103DD000E8008E77ECCF2091E4003091E50095E685
:103DE000A9012091EC00822F817020FF06C08091F4
:103DF000E80080FF06C080E008952091E80022FDE1
:103E00001AC080916404882389F0853089F08091FC
:103E1000EB0085FD0FC02091E4003091E5004217D2
:103E20005307F9F29150E1F684E0089582E0089595
:103E300083E0089581E008950E948B1F0E94931FE4
:103E4000E0EEF0E0808181608083E8EDF0E0808149
:103E50008F77808319BCA7EDB0E08C918E7F8C9317
:103E600080818F7E80831092630408950F931F9347
:103E7000CF93DF930E948B1F0E94931FC8EDD0E069
:103E800088818F77888388818068888388818F7D07
:103E9000888319BC1092640410926004109262042A
:103EA0001092610400EE10E0F80180818B7F808326
:103EB00088818160888342E060E080E00E94981EF3
:103EC000E1EEF0E080818E7F8083E2EEF0E08081A1
:103ED00081608083808188608083F80180818E7F0B
:103EE0008083888180618883DF91CF911F910F91BA
:103EF0000895E8EDF0E080818F7E8083E7EDF0E0CB
:103F000080818160808384E082BF81E0809363044C
:103F10000E94361F0895E8EDF0E080818E7F808357
:103F20001092E20008951092DA001092E1000895D4
:103F30001F920F920FB60F9211242F933F934F931E
:103F40005F936F937F938F939F93AF93BF93EF9301
:103F5000FF938091E10082FF0BC08091E20082FF1D
:103F600007C08091E1008B7F8093E1000E94F721E0
:103F70008091DA0080FF19C08091D80080FF15C0C1
:103F80008091DA008E7F8093DA008091D90080FFE3
:103F900096C080E189BD82E189BD09B400FEFDCFF4
:103FA00081E0809364040E94F41B8091E10080FF13
:103FB00019C08091E20080FF15C08091E2008E7FE1
:103FC0008093E2008091E20080618093E200809122
:103FD000D80080628093D80019BC85E08093640487
:103FE0000E94081C8091E10084FF2BC08091E200B8
:103FF00084FF27C080E189BD82E189BD89B5982F02
:10400000917080FFFBCF8091D8008F7D8093D80086
:104010008091E1008F7E8093E1008091E2008F7EAD
:104020008093E2008091E20081608093E2008091C1
:104030006004882309F449C084E0809364040E94EA
:10404000111C8091E10083FF29C08091E20083FF71
:1040500025C08091E100877F8093E10082E080931A
:104060006404109260048091E1008E7F8093E100EF
:104070008091E2008E7F8093E2008091E200806177
:104080008093E20042E060E080E00E94981E809110
:10409000F00088608093F0000E94051CFF91EF9172
:1040A000BF91AF919F918F917F916F915F914F9150
:1040B0003F912F910F900FBE0F901F90189519BC34
:1040C000109264040E94021C70CF8091E30087FD6F
:1040D00093E090936404B3CF1F920F920FB60F92A8
:1040E00011242F933F934F935F936F937F938F93FD
:1040F0009F93AF93BF93CF93DF93EF93FF93D091B1
:10410000E900DF708091EC00C82FC17080FDC0E82D
:104110001092E9008091F000877F8093F0007894FE
:104120000E94B0201092E9008091F0008860809396
:10413000F000CD2BCF70C093E900FF91EF91DF919C
:10414000CF91BF91AF919F918F917F916F915F912F
:104150004F913F912F910F900FBE0F901F90189588
:10416000AAE2B0E0E6EBF0E20C944E2285E694E0A1
:104170002091F100FC012193CF01F4E08D369F07DF
:10418000B9F70E942C1C8091E80083FF1EC180912A
:104190006504909166049A3008F017C1E92FF0E0A9
:1041A000E452FD4D0C943922803899F0823809F0A0
:1041B0000CC1809169048F70873008F006C180932C
:1041C000E9008091EB0085FB882780F91092E900D7
:1041D00006C0809161049091620491118260909177
:1041E000E800977F9093E8008093F1001092F1002F
:1041F0008091E8008E77E5C0882309F4D3C082302F
:1042000009F0E3C0809167048111D6C080916904F0
:104210008F702FEF280F263008F0D7C08093E90069
:104220002091EB0020FFC8C0933031F48091EB0067
:1042300080628093EB00C0C09091EB0090619093FE
:10424000EB0021E030E001C0220F8A95EAF72093CD
:10425000EA001092EA008091EB008860EACF8111B9
:10426000B4C0109167041F778091E3008078812BA0
:104270008093E3008091E800877F8093E8000E94AC
:10428000CC1E8091E80080FFFCCF8091E300806825
:104290008093E30082E0111183E08093640495C071
:1042A0008058823008F091C0809167049091680432
:1042B0008C3D23E09207A1F583E08A838AE289831B
:1042C0004FB7F894DE01139620E03EE051E2E32F71
:1042D000F0E050935700E49120FF03C0E295EF70A7
:1042E0003F5FEF708E2F90E0EA30C0F0C7968D935D
:1042F0009D932F5F243159F74FBF8091E800877F4E
:104300008093E8006AE270E0CE0101960E94DB1D16
:104310008091E8008B778093E80057C0C096E7CF84
:104320006091690470916A04AE014F5F5F4F0E9413
:104330002D1DBC01892B09F448C09091E800977F9E
:104340009093E80089819A810E94391EE1CF8038DC
:10435000E1F58091E800877F8093E8008091600418
:104360008093F10045CF811130C090916704923065
:1043700060F58091E800877F8093E8009093600467
:104380000E94CC1E80916004882311F084E005C057
:104390008091E30087FDFACF81E0809364040E945E
:1043A0001C1C13C080916704813079F481E0933044
:1043B00009F080E0809362041092E9008091E800A7
:1043C000877F8093E8000E94CC1E8091E80083FFE5
:1043D0000AC08091E800877F8093E8008091EB001D
:1043E00080628093EB00AA96E3E00C946A22089521
:1043F000CF93809164048823A1F0C091E900CF702D
:104400009091EC00892F817090FD80E8C82B10926C
:10441000E9008091E80083FD0E94B020CF70C09336
:10442000E900CF9108950E941C1F10926404089522
:10443000E8EDF0E08081806180838AE18A95F1F780
:1044400000C08091D90081700895AA1BBB1B51E167
:1044500007C0AA1FBB1FA617B70710F0A61BB70BF4
:10446000881F991F5A95A9F780959095BC01CD0199
:104470000895EE0FFF1F0590F491E02D09942F92FF
:104480003F924F925F926F927F928F929F92AF92E4
:10449000BF92CF92DF92EF92FF920F931F93CF9331
:1044A000DF93CDB7DEB7CA1BDB0B0FB6F894DEBFC8
:1044B0000FBECDBF09942A88398848885F846E84EE
:1044C0007D848C849B84AA84B984C884DF80EE8038
:1044D000FD800C811B81AA81B981CE0FD11D0FB641
:1044E000F894DEBF0FBECDBFED010895FB01DC01E6
:1044F00004C08D910190801921F441505040C8F7BB
:10450000881B990B0895FB01DC0102C001900D92FC
:1045100041505040D8F70895F999FECF92BD81BD22
:10452000F89A992780B50895A8E1B0E042E050E0FC
:104530000C94C022262FF999FECF92BD81BDF89A26
:10454000019700B4021639F01FBA20BD0FB6F894D7
:10455000FA9AF99A0FBE08950396272F0E949B227C
:104560000E949A22252F0E949B22242F0C949B228A
:104570000196272F0E949B220C949A22DC01CB01EA
:10458000FC01F999FECF06C0F2BDE1BDF89A319663
:1045900000B40D9241505040B8F70895F894FFCF01
:1045A000B203B203E303E30312041204120412047D
:1045B0007004FC040B050B05D420FC20E521FC2035
:0C45C000E5212F215021E521A721B32186
:1045CC00BA0101000000010000000000000005011C
:1045DC0000000004060000000000000021007F2203
:1045EC000003C01BC51BF21BC31BF31BC41B01F632
:1045FC00F7313332366697C63435DF0100081018B0
:04460C00181008007A
:00000001FF
